{"contracts/IStaking.sol":{"IStaking":{"abi":[{"inputs":[{"internalType":"address","name":"_stakingToken","type":"address"},{"internalType":"address","name":"_rewardToken","type":"address"},{"internalType":"uint256","name":"_mintDurationAfterEnded","type":"uint256"},{"internalType":"uint256","name":"_initialTokenId","type":"uint256"}],"stateMutability":"nonpayable","type":"constructor"},{"inputs":[{"internalType":"address","name":"sender","type":"address"},{"internalType":"uint256","name":"tokenId","type":"uint256"},{"internalType":"address","name":"owner","type":"address"}],"name":"ERC721IncorrectOwner","type":"error"},{"inputs":[{"internalType":"address","name":"operator","type":"address"},{"internalType":"uint256","name":"tokenId","type":"uint256"}],"name":"ERC721InsufficientApproval","type":"error"},{"inputs":[{"internalType":"address","name":"approver","type":"address"}],"name":"ERC721InvalidApprover","type":"error"},{"inputs":[{"internalType":"address","name":"operator","type":"address"}],"name":"ERC721InvalidOperator","type":"error"},{"inputs":[{"internalType":"address","name":"owner","type":"address"}],"name":"ERC721InvalidOwner","type":"error"},{"inputs":[{"internalType":"address","name":"receiver","type":"address"}],"name":"ERC721InvalidReceiver","type":"error"},{"inputs":[{"internalType":"address","name":"sender","type":"address"}],"name":"ERC721InvalidSender","type":"error"},{"inputs":[{"internalType":"uint256","name":"tokenId","type":"uint256"}],"name":"ERC721NonexistentToken","type":"error"},{"inputs":[{"internalType":"address","name":"owner","type":"address"}],"name":"OwnableInvalidOwner","type":"error"},{"inputs":[{"internalType":"address","name":"account","type":"address"}],"name":"OwnableUnauthorizedAccount","type":"error"},{"anonymous":false,"inputs":[{"indexed":true,"internalType":"address","name":"owner","type":"address"},{"indexed":true,"internalType":"address","name":"approved","type":"address"},{"indexed":true,"internalType":"uint256","name":"tokenId","type":"uint256"}],"name":"Approval","type":"event"},{"anonymous":false,"inputs":[{"indexed":true,"internalType":"address","name":"owner","type":"address"},{"indexed":true,"internalType":"address","name":"operator","type":"address"},{"indexed":false,"internalType":"bool","name":"approved","type":"bool"}],"name":"ApprovalForAll","type":"event"},{"anonymous":false,"inputs":[{"indexed":true,"internalType":"address","name":"previousOwner","type":"address"},{"indexed":true,"internalType":"address","name":"newOwner","type":"address"}],"name":"OwnershipTransferred","type":"event"},{"anonymous":false,"inputs":[{"indexed":true,"internalType":"address","name":"user","type":"address"},{"indexed":false,"internalType":"uint256","name":"amount","type":"uint256"}],"name":"Staked","type":"event"},{"anonymous":false,"inputs":[{"indexed":true,"internalType":"address","name":"user","type":"address"},{"indexed":false,"internalType":"uint256","name":"tokenId","type":"uint256"}],"name":"TokenMinted","type":"event"},{"anonymous":false,"inputs":[{"indexed":true,"internalType":"address","name":"from","type":"address"},{"indexed":true,"internalType":"address","name":"to","type":"address"},{"indexed":true,"internalType":"uint256","name":"tokenId","type":"uint256"}],"name":"Transfer","type":"event"},{"anonymous":false,"inputs":[{"indexed":true,"internalType":"address","name":"user","type":"address"},{"indexed":false,"internalType":"uint256","name":"amount","type":"uint256"},{"indexed":false,"internalType":"uint256","name":"reward","type":"uint256"}],"name":"Withdrawn","type":"event"},{"inputs":[{"internalType":"uint256","name":"","type":"uint256"}],"name":"IST2User","outputs":[{"internalType":"address","name":"","type":"address"}],"stateMutability":"view","type":"function"},{"inputs":[{"internalType":"address","name":"to","type":"address"},{"internalType":"uint256","name":"tokenId","type":"uint256"}],"name":"approve","outputs":[],"stateMutability":"nonpayable","type":"function"},{"inputs":[{"internalType":"address","name":"owner","type":"address"}],"name":"balanceOf","outputs":[{"internalType":"uint256","name":"","type":"uint256"}],"stateMutability":"view","type":"function"},{"inputs":[],"name":"canMint","outputs":[{"internalType":"bool","name":"","type":"bool"}],"stateMutability":"view","type":"function"},{"inputs":[],"name":"extraRewards","outputs":[{"internalType":"uint256","name":"","type":"uint256"}],"stateMutability":"view","type":"function"},{"inputs":[],"name":"extraRewardsWithdrawCountdownTime","outputs":[{"internalType":"uint256","name":"","type":"uint256"}],"stateMutability":"view","type":"function"},{"inputs":[{"internalType":"uint256","name":"tokenId","type":"uint256"}],"name":"getApproved","outputs":[{"internalType":"address","name":"","type":"address"}],"stateMutability":"view","type":"function"},{"inputs":[],"name":"getExtraRewards","outputs":[{"internalType":"uint256","name":"","type":"uint256"}],"stateMutability":"view","type":"function"},{"inputs":[],"name":"getStakeInfo","outputs":[{"internalType":"uint256","name":"amount","type":"uint256"},{"internalType":"uint256","name":"rewards","type":"uint256"},{"internalType":"uint256","name":"stakeTime","type":"uint256"}],"stateMutability":"view","type":"function"},{"inputs":[{"internalType":"address","name":"owner","type":"address"},{"internalType":"address","name":"operator","type":"address"}],"name":"isApprovedForAll","outputs":[{"internalType":"bool","name":"","type":"bool"}],"stateMutability":"view","type":"function"},{"inputs":[],"name":"mintDurationAfterEnded","outputs":[{"internalType":"uint256","name":"","type":"uint256"}],"stateMutability":"view","type":"function"},{"inputs":[],"name":"mintToken","outputs":[{"internalType":"uint256","name":"","type":"uint256"}],"stateMutability":"nonpayable","type":"function"},{"inputs":[],"name":"name","outputs":[{"internalType":"string","name":"","type":"string"}],"stateMutability":"view","type":"function"},{"inputs":[],"name":"owner","outputs":[{"internalType":"address","name":"","type":"address"}],"stateMutability":"view","type":"function"},{"inputs":[{"internalType":"uint256","name":"tokenId","type":"uint256"}],"name":"ownerOf","outputs":[{"internalType":"address","name":"","type":"address"}],"stateMutability":"view","type":"function"},{"inputs":[],"name":"renounceOwnership","outputs":[],"stateMutability":"nonpayable","type":"function"},{"inputs":[],"name":"rewardToken","outputs":[{"internalType":"contract IERC20","name":"","type":"address"}],"stateMutability":"view","type":"function"},{"inputs":[{"internalType":"address","name":"from","type":"address"},{"internalType":"address","name":"to","type":"address"},{"internalType":"uint256","name":"tokenId","type":"uint256"}],"name":"safeTransferFrom","outputs":[],"stateMutability":"nonpayable","type":"function"},{"inputs":[{"internalType":"address","name":"from","type":"address"},{"internalType":"address","name":"to","type":"address"},{"internalType":"uint256","name":"tokenId","type":"uint256"},{"internalType":"bytes","name":"data","type":"bytes"}],"name":"safeTransferFrom","outputs":[],"stateMutability":"nonpayable","type":"function"},{"inputs":[{"internalType":"address","name":"operator","type":"address"},{"internalType":"bool","name":"approved","type":"bool"}],"name":"setApprovalForAll","outputs":[],"stateMutability":"nonpayable","type":"function"},{"inputs":[{"internalType":"uint256","name":"amount","type":"uint256"}],"name":"stake","outputs":[],"stateMutability":"nonpayable","type":"function"},{"inputs":[{"internalType":"address","name":"","type":"address"}],"name":"stakes","outputs":[{"internalType":"uint256","name":"amount","type":"uint256"},{"internalType":"uint256","name":"earnedRewards","type":"uint256"},{"internalType":"uint256","name":"startTime","type":"uint256"},{"internalType":"uint256","name":"lastStakeTime","type":"uint256"},{"internalType":"uint256","name":"mintableStartTime","type":"uint256"},{"internalType":"bool","name":"isMinted","type":"bool"}],"stateMutability":"view","type":"function"},{"inputs":[],"name":"stakingDuration","outputs":[{"internalType":"uint256","name":"","type":"uint256"}],"stateMutability":"view","type":"function"},{"inputs":[],"name":"stakingStartTime","outputs":[{"internalType":"uint256","name":"","type":"uint256"}],"stateMutability":"view","type":"function"},{"inputs":[],"name":"stakingToken","outputs":[{"internalType":"contract IERC20","name":"","type":"address"}],"stateMutability":"view","type":"function"},{"inputs":[{"internalType":"uint256","name":"_totalRewards","type":"uint256"},{"internalType":"uint256","name":"_extraRewardsRatios","type":"uint256"},{"internalType":"uint256","name":"_stakingDuration","type":"uint256"}],"name":"start","outputs":[],"stateMutability":"nonpayable","type":"function"},{"inputs":[{"internalType":"bytes4","name":"interfaceId","type":"bytes4"}],"name":"supportsInterface","outputs":[{"internalType":"bool","name":"","type":"bool"}],"stateMutability":"view","type":"function"},{"inputs":[],"name":"symbol","outputs":[{"internalType":"string","name":"","type":"string"}],"stateMutability":"view","type":"function"},{"inputs":[{"internalType":"uint256","name":"tokenId","type":"uint256"}],"name":"tokenURI","outputs":[{"internalType":"string","name":"","type":"string"}],"stateMutability":"view","type":"function"},{"inputs":[],"name":"totalMintedCount","outputs":[{"internalType":"uint256","name":"","type":"uint256"}],"stateMutability":"view","type":"function"},{"inputs":[],"name":"totalRewardDistributed","outputs":[{"internalType":"uint256","name":"","type":"uint256"}],"stateMutability":"view","type":"function"},{"inputs":[],"name":"totalRewards","outputs":[{"internalType":"uint256","name":"","type":"uint256"}],"stateMutability":"view","type":"function"},{"inputs":[],"name":"totalStaked","outputs":[{"internalType":"uint256","name":"","type":"uint256"}],"stateMutability":"view","type":"function"},{"inputs":[{"internalType":"address","name":"from","type":"address"},{"internalType":"address","name":"to","type":"address"},{"internalType":"uint256","name":"tokenId","type":"uint256"}],"name":"transferFrom","outputs":[],"stateMutability":"nonpayable","type":"function"},{"inputs":[{"internalType":"address","name":"newOwner","type":"address"}],"name":"transferOwnership","outputs":[],"stateMutability":"nonpayable","type":"function"},{"inputs":[{"internalType":"address","name":"","type":"address"}],"name":"user2IST","outputs":[{"internalType":"uint256","name":"","type":"uint256"}],"stateMutability":"view","type":"function"},{"inputs":[{"internalType":"uint256","name":"amount","type":"uint256"}],"name":"withdraw","outputs":[],"stateMutability":"nonpayable","type":"function"},{"inputs":[],"name":"withdrawExtraRewards","outputs":[{"internalType":"uint256","name":"","type":"uint256"}],"stateMutability":"nonpayable","type":"function"}],"evm":{"bytecode":{"linkReferences":{},"object":"608060405234801561001057600080fd5b5060405161429238038061429283398181016040528101906100329190610339565b6040518060400160405280600d81526020017f495374616b696e67546f6b656e000000000000000000000000000000000000008152506040518060400160405280600381526020017f495354000000000000000000000000000000000000000000000000000000000081525033600073ffffffffffffffffffffffffffffffffffffffff168173ffffffffffffffffffffffffffffffffffffffff16036101115760006040517f1e4fbdf700000000000000000000000000000000000000000000000000000000815260040161010891906103af565b60405180910390fd5b610120816101dc60201b60201c565b5081600190816101309190610610565b5080600290816101409190610610565b50505083600b60006101000a81548173ffffffffffffffffffffffffffffffffffffffff021916908373ffffffffffffffffffffffffffffffffffffffff16021790555082600c60006101000a81548173ffffffffffffffffffffffffffffffffffffffff021916908373ffffffffffffffffffffffffffffffffffffffff1602179055508160148190555080600a81905550505050506106e2565b60008060009054906101000a900473ffffffffffffffffffffffffffffffffffffffff169050816000806101000a81548173ffffffffffffffffffffffffffffffffffffffff021916908373ffffffffffffffffffffffffffffffffffffffff1602179055508173ffffffffffffffffffffffffffffffffffffffff168173ffffffffffffffffffffffffffffffffffffffff167f8be0079c531659141344cd1fd0a4f28419497f9722a3daafe3b4186f6b6457e060405160405180910390a35050565b600080fd5b600073ffffffffffffffffffffffffffffffffffffffff82169050919050565b60006102d0826102a5565b9050919050565b6102e0816102c5565b81146102eb57600080fd5b50565b6000815190506102fd816102d7565b92915050565b6000819050919050565b61031681610303565b811461032157600080fd5b50565b6000815190506103338161030d565b92915050565b60008060008060808587031215610353576103526102a0565b5b6000610361878288016102ee565b9450506020610372878288016102ee565b935050604061038387828801610324565b925050606061039487828801610324565b91505092959194509250565b6103a9816102c5565b82525050565b60006020820190506103c460008301846103a0565b92915050565b600081519050919050565b7f4e487b7100000000000000000000000000000000000000000000000000000000600052604160045260246000fd5b7f4e487b7100000000000000000000000000000000000000000000000000000000600052602260045260246000fd5b6000600282049050600182168061044b57607f821691505b60208210810361045e5761045d610404565b5b50919050565b60008190508160005260206000209050919050565b60006020601f8301049050919050565b600082821b905092915050565b6000600883026104c67fffffffffffffffffffffffffffffffffffffffffffffffffffffffffffffffff82610489565b6104d08683610489565b95508019841693508086168417925050509392505050565b6000819050919050565b600061050d61050861050384610303565b6104e8565b610303565b9050919050565b6000819050919050565b610527836104f2565b61053b61053382610514565b848454610496565b825550505050565b600090565b610550610543565b61055b81848461051e565b505050565b5b8181101561057f57610574600082610548565b600181019050610561565b5050565b601f8211156105c45761059581610464565b61059e84610479565b810160208510156105ad578190505b6105c16105b985610479565b830182610560565b50505b505050565b600082821c905092915050565b60006105e7600019846008026105c9565b1980831691505092915050565b600061060083836105d6565b9150826002028217905092915050565b610619826103ca565b67ffffffffffffffff811115610632576106316103d5565b5b61063c8254610433565b610647828285610583565b600060209050601f83116001811461067a5760008415610668578287015190505b61067285826105f4565b8655506106da565b601f19841661068886610464565b60005b828110156106b05784890151825560018201915060208501945060208101905061068b565b868310156106cd57848901516106c9601f8916826105d6565b8355505b6001600288020188555050505b505050505050565b613ba1806106f16000396000f3fe608060405234801561001057600080fd5b50600436106102325760003560e01c8063715018a611610130578063b88d4fde116100b8578063f0020c9e1161007c578063f0020c9e1461069a578063f28cb982146106b8578063f2fde38b146106d6578063f7c618c1146106f2578063fb7be5721461071057610232565b8063b88d4fde146105e2578063beb9716d146105fe578063c87b56dd1461061c578063e21c81d31461064c578063e985e9c51461066a57610232565b8063817b1cd2116100ff578063817b1cd2146105505780638da5cb5b1461056e57806395d89b411461058c578063a22cb465146105aa578063a694fc3a146105c657610232565b8063715018a6146104ea57806372f702f3146104f457806374a4030f146105125780638005a7de1461053257610232565b806326ba27e3116101be5780635c9c80c7116101825780635c9c80c7146104205780636352211e14610450578063641ccd83146104805780636abfd1831461049c57806370a08231146104ba57610232565b806326ba27e31461037c5780632e1a7d4d1461039a57806330188ee8146103b657806342842e0e146103d45780634552a114146103f057610232565b8063095ea7b311610205578063095ea7b3146102d35780630e15561a146102ef57806316934fc41461030d5780632004ffd91461034257806323b872dd1461036057610232565b806301ffc9a71461023757806303bf7ab31461026757806306fdde0314610285578063081812fc146102a3575b600080fd5b610251600480360381019061024c9190612c36565b61072e565b60405161025e9190612c7e565b60405180910390f35b61026f610810565b60405161027c9190612cb2565b60405180910390f35b61028d610853565b60405161029a9190612d5d565b60405180910390f35b6102bd60048036038101906102b89190612dab565b6108e5565b6040516102ca9190612e19565b60405180910390f35b6102ed60048036038101906102e89190612e60565b610901565b005b6102f7610917565b6040516103049190612cb2565b60405180910390f35b61032760048036038101906103229190612ea0565b61091d565b60405161033996959493929190612ecd565b60405180910390f35b61034a610966565b6040516103579190612cb2565b60405180910390f35b61037a60048036038101906103759190612f2e565b610b40565b005b610384610c42565b6040516103919190612cb2565b60405180910390f35b6103b460048036038101906103af9190612dab565b610c48565b005b6103be610fc2565b6040516103cb9190612cb2565b60405180910390f35b6103ee60048036038101906103e99190612f2e565b610fc8565b005b61040a60048036038101906104059190612ea0565b610fe8565b6040516104179190612cb2565b60405180910390f35b61043a60048036038101906104359190612dab565b611000565b6040516104479190612e19565b60405180910390f35b61046a60048036038101906104659190612dab565b611033565b6040516104779190612e19565b60405180910390f35b61049a60048036038101906104959190612f81565b611045565b005b6104a461109e565b6040516104b19190612cb2565b60405180910390f35b6104d460048036038101906104cf9190612ea0565b6110a4565b6040516104e19190612cb2565b60405180910390f35b6104f261115e565b005b6104fc611172565b6040516105099190613033565b60405180910390f35b61051a611198565b6040516105299392919061304e565b60405180910390f35b61053a611236565b6040516105479190612cb2565b60405180910390f35b61055861123c565b6040516105659190612cb2565b60405180910390f35b610576611242565b6040516105839190612e19565b60405180910390f35b61059461126b565b6040516105a19190612d5d565b60405180910390f35b6105c460048036038101906105bf91906130b1565b6112fd565b005b6105e060048036038101906105db9190612dab565b611313565b005b6105fc60048036038101906105f79190613226565b6115d7565b005b6106066115fc565b6040516106139190612c7e565b60405180910390f35b61063660048036038101906106319190612dab565b611737565b6040516106439190612d5d565b60405180910390f35b6106546117a0565b6040516106619190612cb2565b60405180910390f35b610684600480360381019061067f91906132a9565b6117a6565b6040516106919190612c7e565b60405180910390f35b6106a261183a565b6040516106af9190612cb2565b60405180910390f35b6106c0611840565b6040516106cd9190612cb2565b60405180910390f35b6106f060048036038101906106eb9190612ea0565b611917565b005b6106fa61199d565b6040516107079190613033565b60405180910390f35b6107186119c3565b6040516107259190612cb2565b60405180910390f35b60007f80ac58cd000000000000000000000000000000000000000000000000000000007bffffffffffffffffffffffffffffffffffffffffffffffffffffffff1916827bffffffffffffffffffffffffffffffffffffffffffffffffffffffff191614806107f957507f5b5e139f000000000000000000000000000000000000000000000000000000007bffffffffffffffffffffffffffffffffffffffffffffffffffffffff1916827bffffffffffffffffffffffffffffffffffffffffffffffffffffffff1916145b80610809575061080882611bb7565b5b9050919050565b6000806014546011546012546108269190613318565b6108309190613318565b905080421161084a574281610845919061334c565b61084d565b60005b91505090565b606060018054610862906133af565b80601f016020809104026020016040519081016040528092919081815260200182805461088e906133af565b80156108db5780601f106108b0576101008083540402835291602001916108db565b820191906000526020600020905b8154815290600101906020018083116108be57829003601f168201915b5050505050905090565b60006108f082611c21565b506108fa82611ca9565b9050919050565b610913828261090e611ce6565b611cee565b5050565b600e5481565b60096020528060005260406000206000915090508060000154908060010154908060020154908060030154908060040154908060050160009054906101000a900460ff16905086565b60006109706115fc565b6109af576040517f08c379a00000000000000000000000000000000000000000000000000000000081526004016109a69061342c565b60405180910390fd5b6000600960003373ffffffffffffffffffffffffffffffffffffffff1673ffffffffffffffffffffffffffffffffffffffff16815260200190815260200160002090506000600a549050610a033382611d00565b6001600a6000828254610a169190613318565b9250508190555060018260050160006101000a81548160ff02191690831515021790555080600760003373ffffffffffffffffffffffffffffffffffffffff1673ffffffffffffffffffffffffffffffffffffffff16815260200190815260200160002081905550336008600083815260200190815260200160002060006101000a81548173ffffffffffffffffffffffffffffffffffffffff021916908373ffffffffffffffffffffffffffffffffffffffff160217905550600160136000828254610ae39190613318565b925050819055503373ffffffffffffffffffffffffffffffffffffffff167fb9144c96c86541f6fa89c9f2f02495cccf4b08cd6643e26d34ee00aa586558a882604051610b309190612cb2565b60405180910390a2809250505090565b600073ffffffffffffffffffffffffffffffffffffffff168273ffffffffffffffffffffffffffffffffffffffff1603610bb25760006040517f64a0ae92000000000000000000000000000000000000000000000000000000008152600401610ba99190612e19565b60405180910390fd5b6000610bc68383610bc1611ce6565b611d1e565b90508373ffffffffffffffffffffffffffffffffffffffff168173ffffffffffffffffffffffffffffffffffffffff1614610c3c578382826040517f64283d7b000000000000000000000000000000000000000000000000000000008152600401610c339392919061344c565b60405180910390fd5b50505050565b60135481565b6000600960003373ffffffffffffffffffffffffffffffffffffffff1673ffffffffffffffffffffffffffffffffffffffff16815260200190815260200160002090508181600001541015610cd2576040517f08c379a0000000000000000000000000000000000000000000000000000000008152600401610cc9906134cf565b60405180910390fd5b6000610cdd33611f38565b905080826001016000828254610cf39190613318565b92505081905550600e548260010154601054610d0f9190613318565b1115610d50576040517f08c379a0000000000000000000000000000000000000000000000000000000008152600401610d479061353b565b60405180910390fd5b600b60009054906101000a900473ffffffffffffffffffffffffffffffffffffffff1673ffffffffffffffffffffffffffffffffffffffff1663a9059cbb33856040518363ffffffff1660e01b8152600401610dad92919061355b565b6020604051808303816000875af1158015610dcc573d6000803e3d6000fd5b505050506040513d601f19601f82011682018060405250810190610df09190613599565b610e2f576040517f08c379a0000000000000000000000000000000000000000000000000000000008152600401610e2690613612565b60405180910390fd5b600c60009054906101000a900473ffffffffffffffffffffffffffffffffffffffff1673ffffffffffffffffffffffffffffffffffffffff1663a9059cbb3384600101546040518363ffffffff1660e01b8152600401610e9092919061355b565b6020604051808303816000875af1158015610eaf573d6000803e3d6000fd5b505050506040513d601f19601f82011682018060405250810190610ed39190613599565b610f12576040517f08c379a0000000000000000000000000000000000000000000000000000000008152600401610f099061367e565b60405180910390fd5b82826000016000828254610f26919061334c565b9250508190555082600d6000828254610f3f919061334c565b92505081905550816001015460106000828254610f5c9190613318565b92505081905550600082600101819055503373ffffffffffffffffffffffffffffffffffffffff167f92ccf450a286a957af52509bc1c9939d1a6a481783e142e41e2499f0bb66ebc68483604051610fb592919061369e565b60405180910390a2505050565b60105481565b610fe3838383604051806020016040528060008152506115d7565b505050565b60076020528060005260406000206000915090505481565b60086020528060005260406000206000915054906101000a900473ffffffffffffffffffffffffffffffffffffffff1681565b600061103e82611c21565b9050919050565b61104d612069565b606482606461105c919061334c565b8461106791906136c7565b6110719190613738565b600e81905550600e5483611085919061334c565b600f819055504260128190555080601181905550505050565b60125481565b60008073ffffffffffffffffffffffffffffffffffffffff168273ffffffffffffffffffffffffffffffffffffffff16036111175760006040517f89c62b6400000000000000000000000000000000000000000000000000000000815260040161110e9190612e19565b60405180910390fd5b600460008373ffffffffffffffffffffffffffffffffffffffff1673ffffffffffffffffffffffffffffffffffffffff168152602001908152602001600020549050919050565b611166612069565b61117060006120f0565b565b600b60009054906101000a900473ffffffffffffffffffffffffffffffffffffffff1681565b600080600080600960003373ffffffffffffffffffffffffffffffffffffffff1673ffffffffffffffffffffffffffffffffffffffff168152602001908152602001600020905060006111ea33611f38565b9050816000015494508082600101546112039190613318565b935081600201546112234260115460125461121e9190613318565b6121b4565b61122d919061334c565b92505050909192565b60115481565b600d5481565b60008060009054906101000a900473ffffffffffffffffffffffffffffffffffffffff16905090565b60606002805461127a906133af565b80601f01602080910402602001604051908101604052809291908181526020018280546112a6906133af565b80156112f35780601f106112c8576101008083540402835291602001916112f3565b820191906000526020600020905b8154815290600101906020018083116112d657829003601f168201915b5050505050905090565b61130f611308611ce6565b83836121ce565b5050565b600060125411801561133357506011546012546113309190613318565b42105b611372576040517f08c379a0000000000000000000000000000000000000000000000000000000008152600401611369906137b5565b60405180910390fd5b60328110156113b6576040517f08c379a00000000000000000000000000000000000000000000000000000000081526004016113ad90613821565b60405180910390fd5b600b60009054906101000a900473ffffffffffffffffffffffffffffffffffffffff1673ffffffffffffffffffffffffffffffffffffffff166323b872dd3330846040518463ffffffff1660e01b815260040161141593929190613841565b6020604051808303816000875af1158015611434573d6000803e3d6000fd5b505050506040513d601f19601f820116820180604052508101906114589190613599565b611497576040517f08c379a000000000000000000000000000000000000000000000000000000000815260040161148e90613612565b60405180910390fd5b6000600960003373ffffffffffffffffffffffffffffffffffffffff1673ffffffffffffffffffffffffffffffffffffffff16815260200190815260200160002090506000816003015411156115155760006114f233611f38565b9050808260010160008282546115089190613318565b925050819055505061151f565b4281600201819055505b818160000160008282546115339190613318565b92505081905550610bb8816000015410158015611554575060008160040154145b15611563574281600401819055505b42816003018190555081600d600082825461157e9190613318565b925050819055503373ffffffffffffffffffffffffffffffffffffffff167f9e71bc8eea02a63969f509818f2dafb9254532904319f9dbda79b67bd34a5f3d836040516115cb9190612cb2565b60405180910390a25050565b6115e2848484610b40565b6115f66115ed611ce6565b8585858561233d565b50505050565b600080600960003373ffffffffffffffffffffffffffffffffffffffff1673ffffffffffffffffffffffffffffffffffffffff1681526020019081526020016000206040518060c001604052908160008201548152602001600182015481526020016002820154815260200160038201548152602001600482015481526020016005820160009054906101000a900460ff161515151581525050905060006014546011546012546116ad9190613318565b6116b79190613318565b9050804211156116cc57600092505050611734565b8160a001511580156116e2575060008260800151115b801561172f57506064603c6011546116fa91906136c7565b6117049190613738565b82608001516117224260115460125461171d9190613318565b6121b4565b61172c919061334c565b10155b925050505b90565b606061174282611c21565b50600061174d6124ee565b9050600081511161176d5760405180602001604052806000815250611798565b8061177784612505565b6040516020016117889291906138b4565b6040516020818303038152906040525b915050919050565b600f5481565b6000600660008473ffffffffffffffffffffffffffffffffffffffff1673ffffffffffffffffffffffffffffffffffffffff16815260200190815260200160002060008373ffffffffffffffffffffffffffffffffffffffff1673ffffffffffffffffffffffffffffffffffffffff16815260200190815260200160002060009054906101000a900460ff16905092915050565b60145481565b600080601254118015611862575060115460125461185e9190613318565b4210155b6118a1576040517f08c379a000000000000000000000000000000000000000000000000000000000815260040161189890613924565b60405180910390fd5b6000600760003373ffffffffffffffffffffffffffffffffffffffff1673ffffffffffffffffffffffffffffffffffffffff16815260200190815260200160002054036118f15760009050611914565b6402540be400601354600f546119079190613738565b61191191906136c7565b90505b90565b61191f612069565b600073ffffffffffffffffffffffffffffffffffffffff168173ffffffffffffffffffffffffffffffffffffffff16036119915760006040517f1e4fbdf70000000000000000000000000000000000000000000000000000000081526004016119889190612e19565b60405180910390fd5b61199a816120f0565b50565b600c60009054906101000a900473ffffffffffffffffffffffffffffffffffffffff1681565b6000806012541180156119e557506011546012546119e19190613318565b4210155b611a24576040517f08c379a0000000000000000000000000000000000000000000000000000000008152600401611a1b90613924565b60405180910390fd5b6000611a2e611840565b905060008111611a73576040517f08c379a0000000000000000000000000000000000000000000000000000000008152600401611a6a90613990565b60405180910390fd5b601454601154601254611a869190613318565b611a909190613318565b4211611ad1576040517f08c379a0000000000000000000000000000000000000000000000000000000008152600401611ac8906139fc565b60405180910390fd5b600c60009054906101000a900473ffffffffffffffffffffffffffffffffffffffff1673ffffffffffffffffffffffffffffffffffffffff1663a9059cbb33836040518363ffffffff1660e01b8152600401611b2e92919061355b565b6020604051808303816000875af1158015611b4d573d6000803e3d6000fd5b505050506040513d601f19601f82011682018060405250810190611b719190613599565b611bb0576040517f08c379a0000000000000000000000000000000000000000000000000000000008152600401611ba790613a68565b60405180910390fd5b8091505090565b60007f01ffc9a7000000000000000000000000000000000000000000000000000000007bffffffffffffffffffffffffffffffffffffffffffffffffffffffff1916827bffffffffffffffffffffffffffffffffffffffffffffffffffffffff1916149050919050565b600080611c2d836125d3565b9050600073ffffffffffffffffffffffffffffffffffffffff168173ffffffffffffffffffffffffffffffffffffffff1603611ca057826040517f7e273289000000000000000000000000000000000000000000000000000000008152600401611c979190612cb2565b60405180910390fd5b80915050919050565b60006005600083815260200190815260200160002060009054906101000a900473ffffffffffffffffffffffffffffffffffffffff169050919050565b600033905090565b611cfb8383836001612610565b505050565b611d1a8282604051806020016040528060008152506127d5565b5050565b600080611d2a846125d3565b9050600073ffffffffffffffffffffffffffffffffffffffff168373ffffffffffffffffffffffffffffffffffffffff1614611d6c57611d6b8184866127f9565b5b600073ffffffffffffffffffffffffffffffffffffffff168173ffffffffffffffffffffffffffffffffffffffff1614611dfd57611dae600085600080612610565b6001600460008373ffffffffffffffffffffffffffffffffffffffff1673ffffffffffffffffffffffffffffffffffffffff168152602001908152602001600020600082825403925050819055505b600073ffffffffffffffffffffffffffffffffffffffff168573ffffffffffffffffffffffffffffffffffffffff1614611e80576001600460008773ffffffffffffffffffffffffffffffffffffffff1673ffffffffffffffffffffffffffffffffffffffff168152602001908152602001600020600082825401925050819055505b846003600086815260200190815260200160002060006101000a81548173ffffffffffffffffffffffffffffffffffffffff021916908373ffffffffffffffffffffffffffffffffffffffff160217905550838573ffffffffffffffffffffffffffffffffffffffff168273ffffffffffffffffffffffffffffffffffffffff167fddf252ad1be2c89b69c2b068fc378daa952ba7f163c4a11628f55a4df523b3ef60405160405180910390a4809150509392505050565b600080600960008473ffffffffffffffffffffffffffffffffffffffff1673ffffffffffffffffffffffffffffffffffffffff1681526020019081526020016000209050600081600001541480611f9157506000601254145b15611fa0576000915050612064565b60008160030154611fc042601154601254611fbb9190613318565b6121b4565b611fca919061334c565b90506000600d54670de0b6b3a76400008460000154611fe991906136c7565b611ff39190613738565b90506000601154670de0b6b3a764000061200d91906136c7565b83600e548461201c91906136c7565b61202691906136c7565b6120309190613738565b9050600e54816010546120439190613318565b111561205c57601054600e54612059919061334c565b90505b809450505050505b919050565b612071611ce6565b73ffffffffffffffffffffffffffffffffffffffff1661208f611242565b73ffffffffffffffffffffffffffffffffffffffff16146120ee576120b2611ce6565b6040517f118cdaa70000000000000000000000000000000000000000000000000000000081526004016120e59190612e19565b60405180910390fd5b565b60008060009054906101000a900473ffffffffffffffffffffffffffffffffffffffff169050816000806101000a81548173ffffffffffffffffffffffffffffffffffffffff021916908373ffffffffffffffffffffffffffffffffffffffff1602179055508173ffffffffffffffffffffffffffffffffffffffff168173ffffffffffffffffffffffffffffffffffffffff167f8be0079c531659141344cd1fd0a4f28419497f9722a3daafe3b4186f6b6457e060405160405180910390a35050565b6000818310156121c457826121c6565b815b905092915050565b600073ffffffffffffffffffffffffffffffffffffffff168273ffffffffffffffffffffffffffffffffffffffff160361223f57816040517f5b08ba180000000000000000000000000000000000000000000000000000000081526004016122369190612e19565b60405180910390fd5b80600660008573ffffffffffffffffffffffffffffffffffffffff1673ffffffffffffffffffffffffffffffffffffffff16815260200190815260200160002060008473ffffffffffffffffffffffffffffffffffffffff1673ffffffffffffffffffffffffffffffffffffffff16815260200190815260200160002060006101000a81548160ff0219169083151502179055508173ffffffffffffffffffffffffffffffffffffffff168373ffffffffffffffffffffffffffffffffffffffff167f17307eab39ab6107e8899845ad3d59bd9653f200f220920489ca2b5937696c31836040516123309190612c7e565b60405180910390a3505050565b60008373ffffffffffffffffffffffffffffffffffffffff163b11156124e7578273ffffffffffffffffffffffffffffffffffffffff1663150b7a02868685856040518563ffffffff1660e01b815260040161239c9493929190613add565b6020604051808303816000875af19250505080156123d857506040513d601f19601f820116820180604052508101906123d59190613b3e565b60015b61245c573d8060008114612408576040519150601f19603f3d011682016040523d82523d6000602084013e61240d565b606091505b50600081510361245457836040517f64a0ae9200000000000000000000000000000000000000000000000000000000815260040161244b9190612e19565b60405180910390fd5b805181602001fd5b63150b7a0260e01b7bffffffffffffffffffffffffffffffffffffffffffffffffffffffff1916817bffffffffffffffffffffffffffffffffffffffffffffffffffffffff1916146124e557836040517f64a0ae920000000000000000000000000000000000000000000000000000000081526004016124dc9190612e19565b60405180910390fd5b505b5050505050565b606060405180602001604052806000815250905090565b606060006001612514846128bd565b01905060008167ffffffffffffffff811115612533576125326130fb565b5b6040519080825280601f01601f1916602001820160405280156125655781602001600182028036833780820191505090505b509050600082602001820190505b6001156125c8578080600190039150507f3031323334353637383961626364656600000000000000000000000000000000600a86061a8153600a85816125bc576125bb613709565b5b04945060008503612573575b819350505050919050565b60006003600083815260200190815260200160002060009054906101000a900473ffffffffffffffffffffffffffffffffffffffff169050919050565b80806126495750600073ffffffffffffffffffffffffffffffffffffffff168273ffffffffffffffffffffffffffffffffffffffff1614155b1561277d57600061265984611c21565b9050600073ffffffffffffffffffffffffffffffffffffffff168373ffffffffffffffffffffffffffffffffffffffff16141580156126c457508273ffffffffffffffffffffffffffffffffffffffff168173ffffffffffffffffffffffffffffffffffffffff1614155b80156126d757506126d581846117a6565b155b1561271957826040517fa9fbf51f0000000000000000000000000000000000000000000000000000000081526004016127109190612e19565b60405180910390fd5b811561277b57838573ffffffffffffffffffffffffffffffffffffffff168273ffffffffffffffffffffffffffffffffffffffff167f8c5be1e5ebec7d5bd14f71427d1e84f3dd0314c0f7b2291e5b200ac8c7c3b92560405160405180910390a45b505b836005600085815260200190815260200160002060006101000a81548173ffffffffffffffffffffffffffffffffffffffff021916908373ffffffffffffffffffffffffffffffffffffffff16021790555050505050565b6127df8383612a10565b6127f46127ea611ce6565b600085858561233d565b505050565b612804838383612b09565b6128b857600073ffffffffffffffffffffffffffffffffffffffff168373ffffffffffffffffffffffffffffffffffffffff160361287957806040517f7e2732890000000000000000000000000000000000000000000000000000000081526004016128709190612cb2565b60405180910390fd5b81816040517f177e802f0000000000000000000000000000000000000000000000000000000081526004016128af92919061355b565b60405180910390fd5b505050565b600080600090507a184f03e93ff9f4daa797ed6e38ed64bf6a1f010000000000000000831061291b577a184f03e93ff9f4daa797ed6e38ed64bf6a1f010000000000000000838161291157612910613709565b5b0492506040810190505b6d04ee2d6d415b85acef81000000008310612958576d04ee2d6d415b85acef8100000000838161294e5761294d613709565b5b0492506020810190505b662386f26fc10000831061298757662386f26fc10000838161297d5761297c613709565b5b0492506010810190505b6305f5e10083106129b0576305f5e10083816129a6576129a5613709565b5b0492506008810190505b61271083106129d55761271083816129cb576129ca613709565b5b0492506004810190505b606483106129f857606483816129ee576129ed613709565b5b0492506002810190505b600a8310612a07576001810190505b80915050919050565b600073ffffffffffffffffffffffffffffffffffffffff168273ffffffffffffffffffffffffffffffffffffffff1603612a825760006040517f64a0ae92000000000000000000000000000000000000000000000000000000008152600401612a799190612e19565b60405180910390fd5b6000612a9083836000611d1e565b9050600073ffffffffffffffffffffffffffffffffffffffff168173ffffffffffffffffffffffffffffffffffffffff1614612b045760006040517f73c6ac6e000000000000000000000000000000000000000000000000000000008152600401612afb9190612e19565b60405180910390fd5b505050565b60008073ffffffffffffffffffffffffffffffffffffffff168373ffffffffffffffffffffffffffffffffffffffff1614158015612bc157508273ffffffffffffffffffffffffffffffffffffffff168473ffffffffffffffffffffffffffffffffffffffff161480612b825750612b8184846117a6565b5b80612bc057508273ffffffffffffffffffffffffffffffffffffffff16612ba883611ca9565b73ffffffffffffffffffffffffffffffffffffffff16145b5b90509392505050565b6000604051905090565b600080fd5b600080fd5b60007fffffffff0000000000000000000000000000000000000000000000000000000082169050919050565b612c1381612bde565b8114612c1e57600080fd5b50565b600081359050612c3081612c0a565b92915050565b600060208284031215612c4c57612c4b612bd4565b5b6000612c5a84828501612c21565b91505092915050565b60008115159050919050565b612c7881612c63565b82525050565b6000602082019050612c936000830184612c6f565b92915050565b6000819050919050565b612cac81612c99565b82525050565b6000602082019050612cc76000830184612ca3565b92915050565b600081519050919050565b600082825260208201905092915050565b60005b83811015612d07578082015181840152602081019050612cec565b60008484015250505050565b6000601f19601f8301169050919050565b6000612d2f82612ccd565b612d398185612cd8565b9350612d49818560208601612ce9565b612d5281612d13565b840191505092915050565b60006020820190508181036000830152612d778184612d24565b905092915050565b612d8881612c99565b8114612d9357600080fd5b50565b600081359050612da581612d7f565b92915050565b600060208284031215612dc157612dc0612bd4565b5b6000612dcf84828501612d96565b91505092915050565b600073ffffffffffffffffffffffffffffffffffffffff82169050919050565b6000612e0382612dd8565b9050919050565b612e1381612df8565b82525050565b6000602082019050612e2e6000830184612e0a565b92915050565b612e3d81612df8565b8114612e4857600080fd5b50565b600081359050612e5a81612e34565b92915050565b60008060408385031215612e7757612e76612bd4565b5b6000612e8585828601612e4b565b9250506020612e9685828601612d96565b9150509250929050565b600060208284031215612eb657612eb5612bd4565b5b6000612ec484828501612e4b565b91505092915050565b600060c082019050612ee26000830189612ca3565b612eef6020830188612ca3565b612efc6040830187612ca3565b612f096060830186612ca3565b612f166080830185612ca3565b612f2360a0830184612c6f565b979650505050505050565b600080600060608486031215612f4757612f46612bd4565b5b6000612f5586828701612e4b565b9350506020612f6686828701612e4b565b9250506040612f7786828701612d96565b9150509250925092565b600080600060608486031215612f9a57612f99612bd4565b5b6000612fa886828701612d96565b9350506020612fb986828701612d96565b9250506040612fca86828701612d96565b9150509250925092565b6000819050919050565b6000612ff9612ff4612fef84612dd8565b612fd4565b612dd8565b9050919050565b600061300b82612fde565b9050919050565b600061301d82613000565b9050919050565b61302d81613012565b82525050565b60006020820190506130486000830184613024565b92915050565b60006060820190506130636000830186612ca3565b6130706020830185612ca3565b61307d6040830184612ca3565b949350505050565b61308e81612c63565b811461309957600080fd5b50565b6000813590506130ab81613085565b92915050565b600080604083850312156130c8576130c7612bd4565b5b60006130d685828601612e4b565b92505060206130e78582860161309c565b9150509250929050565b600080fd5b600080fd5b7f4e487b7100000000000000000000000000000000000000000000000000000000600052604160045260246000fd5b61313382612d13565b810181811067ffffffffffffffff82111715613152576131516130fb565b5b80604052505050565b6000613165612bca565b9050613171828261312a565b919050565b600067ffffffffffffffff821115613191576131906130fb565b5b61319a82612d13565b9050602081019050919050565b82818337600083830152505050565b60006131c96131c484613176565b61315b565b9050828152602081018484840111156131e5576131e46130f6565b5b6131f08482856131a7565b509392505050565b600082601f83011261320d5761320c6130f1565b5b813561321d8482602086016131b6565b91505092915050565b600080600080608085870312156132405761323f612bd4565b5b600061324e87828801612e4b565b945050602061325f87828801612e4b565b935050604061327087828801612d96565b925050606085013567ffffffffffffffff81111561329157613290612bd9565b5b61329d878288016131f8565b91505092959194509250565b600080604083850312156132c0576132bf612bd4565b5b60006132ce85828601612e4b565b92505060206132df85828601612e4b565b9150509250929050565b7f4e487b7100000000000000000000000000000000000000000000000000000000600052601160045260246000fd5b600061332382612c99565b915061332e83612c99565b9250828201905080821115613346576133456132e9565b5b92915050565b600061335782612c99565b915061336283612c99565b925082820390508181111561337a576133796132e9565b5b92915050565b7f4e487b7100000000000000000000000000000000000000000000000000000000600052602260045260246000fd5b600060028204905060018216806133c757607f821691505b6020821081036133da576133d9613380565b5b50919050565b7f43616e6e6f74206d696e74000000000000000000000000000000000000000000600082015250565b6000613416600b83612cd8565b9150613421826133e0565b602082019050919050565b6000602082019050818103600083015261344581613409565b9050919050565b60006060820190506134616000830186612e0a565b61346e6020830185612ca3565b61347b6040830184612e0a565b949350505050565b7f496e73756666696369656e74207374616b650000000000000000000000000000600082015250565b60006134b9601283612cd8565b91506134c482613483565b602082019050919050565b600060208201905081810360008301526134e8816134ac565b9050919050565b7f4578636565647320746f74616c20726577617264730000000000000000000000600082015250565b6000613525601583612cd8565b9150613530826134ef565b602082019050919050565b6000602082019050818103600083015261355481613518565b9050919050565b60006040820190506135706000830185612e0a565b61357d6020830184612ca3565b9392505050565b60008151905061359381613085565b92915050565b6000602082840312156135af576135ae612bd4565b5b60006135bd84828501613584565b91505092915050565b7f5472616e73666572206661696c65640000000000000000000000000000000000600082015250565b60006135fc600f83612cd8565b9150613607826135c6565b602082019050919050565b6000602082019050818103600083015261362b816135ef565b9050919050565b7f526577617264207472616e73666572206661696c656400000000000000000000600082015250565b6000613668601683612cd8565b915061367382613632565b602082019050919050565b600060208201905081810360008301526136978161365b565b9050919050565b60006040820190506136b36000830185612ca3565b6136c06020830184612ca3565b9392505050565b60006136d282612c99565b91506136dd83612c99565b92508282026136eb81612c99565b91508282048414831517613702576137016132e9565b5b5092915050565b7f4e487b7100000000000000000000000000000000000000000000000000000000600052601260045260246000fd5b600061374382612c99565b915061374e83612c99565b92508261375e5761375d613709565b5b828204905092915050565b7f4e6f7420696e207374616b696e6720706572696f640000000000000000000000600082015250565b600061379f601583612cd8565b91506137aa82613769565b602082019050919050565b600060208201905081810360008301526137ce81613792565b9050919050565b7f4d757374207374616b65203e3d20353000000000000000000000000000000000600082015250565b600061380b601083612cd8565b9150613816826137d5565b602082019050919050565b6000602082019050818103600083015261383a816137fe565b9050919050565b60006060820190506138566000830186612e0a565b6138636020830185612e0a565b6138706040830184612ca3565b949350505050565b600081905092915050565b600061388e82612ccd565b6138988185613878565b93506138a8818560208601612ce9565b80840191505092915050565b60006138c08285613883565b91506138cc8284613883565b91508190509392505050565b7f5374616b696e672069732072756e6e696e670000000000000000000000000000600082015250565b600061390e601283612cd8565b9150613919826138d8565b602082019050919050565b6000602082019050818103600083015261393d81613901565b9050919050565b7f496e73756666696369656e742065787472612072657761726473000000000000600082015250565b600061397a601a83612cd8565b915061398582613944565b602082019050919050565b600060208201905081810360008301526139a98161396d565b9050919050565b7f6973206e6f742072656164790000000000000000000000000000000000000000600082015250565b60006139e6600c83612cd8565b91506139f1826139b0565b602082019050919050565b60006020820190508181036000830152613a15816139d9565b9050919050565b7f45787472612052657761726473207472616e73666572206661696c6564000000600082015250565b6000613a52601d83612cd8565b9150613a5d82613a1c565b602082019050919050565b60006020820190508181036000830152613a8181613a45565b9050919050565b600081519050919050565b600082825260208201905092915050565b6000613aaf82613a88565b613ab98185613a93565b9350613ac9818560208601612ce9565b613ad281612d13565b840191505092915050565b6000608082019050613af26000830187612e0a565b613aff6020830186612e0a565b613b0c6040830185612ca3565b8181036060830152613b1e8184613aa4565b905095945050505050565b600081519050613b3881612c0a565b92915050565b600060208284031215613b5457613b53612bd4565b5b6000613b6284828501613b29565b9150509291505056fea2646970667358221220b5ba57be4de7b97dfd16a42d80bcaa0114225203354c6b91d6e90c3b0bcd09d664736f6c634300081b0033","opcodes":"PUSH1 0x80 PUSH1 0x40 MSTORE CALLVALUE DUP1 ISZERO PUSH2 0x10 JUMPI PUSH1 0x0 DUP1 REVERT JUMPDEST POP PUSH1 0x40 MLOAD PUSH2 0x4292 CODESIZE SUB DUP1 PUSH2 0x4292 DUP4 CODECOPY DUP2 DUP2 ADD PUSH1 0x40 MSTORE DUP2 ADD SWAP1 PUSH2 0x32 SWAP2 SWAP1 PUSH2 0x339 JUMP JUMPDEST PUSH1 0x40 MLOAD DUP1 PUSH1 0x40 ADD PUSH1 0x40 MSTORE DUP1 PUSH1 0xD DUP2 MSTORE PUSH1 0x20 ADD PUSH32 0x495374616B696E67546F6B656E00000000000000000000000000000000000000 DUP2 MSTORE POP PUSH1 0x40 MLOAD DUP1 PUSH1 0x40 ADD PUSH1 0x40 MSTORE DUP1 PUSH1 0x3 DUP2 MSTORE PUSH1 0x20 ADD PUSH32 0x4953540000000000000000000000000000000000000000000000000000000000 DUP2 MSTORE POP CALLER PUSH1 0x0 PUSH20 0xFFFFFFFFFFFFFFFFFFFFFFFFFFFFFFFFFFFFFFFF AND DUP2 PUSH20 0xFFFFFFFFFFFFFFFFFFFFFFFFFFFFFFFFFFFFFFFF AND SUB PUSH2 0x111 JUMPI PUSH1 0x0 PUSH1 0x40 MLOAD PUSH32 0x1E4FBDF700000000000000000000000000000000000000000000000000000000 DUP2 MSTORE PUSH1 0x4 ADD PUSH2 0x108 SWAP2 SWAP1 PUSH2 0x3AF JUMP JUMPDEST PUSH1 0x40 MLOAD DUP1 SWAP2 SUB SWAP1 REVERT JUMPDEST PUSH2 0x120 DUP2 PUSH2 0x1DC PUSH1 0x20 SHL PUSH1 0x20 SHR JUMP JUMPDEST POP DUP2 PUSH1 0x1 SWAP1 DUP2 PUSH2 0x130 SWAP2 SWAP1 PUSH2 0x610 JUMP JUMPDEST POP DUP1 PUSH1 0x2 SWAP1 DUP2 PUSH2 0x140 SWAP2 SWAP1 PUSH2 0x610 JUMP JUMPDEST POP POP POP DUP4 PUSH1 0xB PUSH1 0x0 PUSH2 0x100 EXP DUP2 SLOAD DUP2 PUSH20 0xFFFFFFFFFFFFFFFFFFFFFFFFFFFFFFFFFFFFFFFF MUL NOT AND SWAP1 DUP4 PUSH20 0xFFFFFFFFFFFFFFFFFFFFFFFFFFFFFFFFFFFFFFFF AND MUL OR SWAP1 SSTORE POP DUP3 PUSH1 0xC PUSH1 0x0 PUSH2 0x100 EXP DUP2 SLOAD DUP2 PUSH20 0xFFFFFFFFFFFFFFFFFFFFFFFFFFFFFFFFFFFFFFFF MUL NOT AND SWAP1 DUP4 PUSH20 0xFFFFFFFFFFFFFFFFFFFFFFFFFFFFFFFFFFFFFFFF AND MUL OR SWAP1 SSTORE POP DUP2 PUSH1 0x14 DUP2 SWAP1 SSTORE POP DUP1 PUSH1 0xA DUP2 SWAP1 SSTORE POP POP POP POP POP PUSH2 0x6E2 JUMP JUMPDEST PUSH1 0x0 DUP1 PUSH1 0x0 SWAP1 SLOAD SWAP1 PUSH2 0x100 EXP SWAP1 DIV PUSH20 0xFFFFFFFFFFFFFFFFFFFFFFFFFFFFFFFFFFFFFFFF AND SWAP1 POP DUP2 PUSH1 0x0 DUP1 PUSH2 0x100 EXP DUP2 SLOAD DUP2 PUSH20 0xFFFFFFFFFFFFFFFFFFFFFFFFFFFFFFFFFFFFFFFF MUL NOT AND SWAP1 DUP4 PUSH20 0xFFFFFFFFFFFFFFFFFFFFFFFFFFFFFFFFFFFFFFFF AND MUL OR SWAP1 SSTORE POP DUP2 PUSH20 0xFFFFFFFFFFFFFFFFFFFFFFFFFFFFFFFFFFFFFFFF AND DUP2 PUSH20 0xFFFFFFFFFFFFFFFFFFFFFFFFFFFFFFFFFFFFFFFF AND PUSH32 0x8BE0079C531659141344CD1FD0A4F28419497F9722A3DAAFE3B4186F6B6457E0 PUSH1 0x40 MLOAD PUSH1 0x40 MLOAD DUP1 SWAP2 SUB SWAP1 LOG3 POP POP JUMP JUMPDEST PUSH1 0x0 DUP1 REVERT JUMPDEST PUSH1 0x0 PUSH20 0xFFFFFFFFFFFFFFFFFFFFFFFFFFFFFFFFFFFFFFFF DUP3 AND SWAP1 POP SWAP2 SWAP1 POP JUMP JUMPDEST PUSH1 0x0 PUSH2 0x2D0 DUP3 PUSH2 0x2A5 JUMP JUMPDEST SWAP1 POP SWAP2 SWAP1 POP JUMP JUMPDEST PUSH2 0x2E0 DUP2 PUSH2 0x2C5 JUMP JUMPDEST DUP2 EQ PUSH2 0x2EB JUMPI PUSH1 0x0 DUP1 REVERT JUMPDEST POP JUMP JUMPDEST PUSH1 0x0 DUP2 MLOAD SWAP1 POP PUSH2 0x2FD DUP2 PUSH2 0x2D7 JUMP JUMPDEST SWAP3 SWAP2 POP POP JUMP JUMPDEST PUSH1 0x0 DUP2 SWAP1 POP SWAP2 SWAP1 POP JUMP JUMPDEST PUSH2 0x316 DUP2 PUSH2 0x303 JUMP JUMPDEST DUP2 EQ PUSH2 0x321 JUMPI PUSH1 0x0 DUP1 REVERT JUMPDEST POP JUMP JUMPDEST PUSH1 0x0 DUP2 MLOAD SWAP1 POP PUSH2 0x333 DUP2 PUSH2 0x30D JUMP JUMPDEST SWAP3 SWAP2 POP POP JUMP JUMPDEST PUSH1 0x0 DUP1 PUSH1 0x0 DUP1 PUSH1 0x80 DUP6 DUP8 SUB SLT ISZERO PUSH2 0x353 JUMPI PUSH2 0x352 PUSH2 0x2A0 JUMP JUMPDEST JUMPDEST PUSH1 0x0 PUSH2 0x361 DUP8 DUP3 DUP9 ADD PUSH2 0x2EE JUMP JUMPDEST SWAP5 POP POP PUSH1 0x20 PUSH2 0x372 DUP8 DUP3 DUP9 ADD PUSH2 0x2EE JUMP JUMPDEST SWAP4 POP POP PUSH1 0x40 PUSH2 0x383 DUP8 DUP3 DUP9 ADD PUSH2 0x324 JUMP JUMPDEST SWAP3 POP POP PUSH1 0x60 PUSH2 0x394 DUP8 DUP3 DUP9 ADD PUSH2 0x324 JUMP JUMPDEST SWAP2 POP POP SWAP3 SWAP6 SWAP2 SWAP5 POP SWAP3 POP JUMP JUMPDEST PUSH2 0x3A9 DUP2 PUSH2 0x2C5 JUMP JUMPDEST DUP3 MSTORE POP POP JUMP JUMPDEST PUSH1 0x0 PUSH1 0x20 DUP3 ADD SWAP1 POP PUSH2 0x3C4 PUSH1 0x0 DUP4 ADD DUP5 PUSH2 0x3A0 JUMP JUMPDEST SWAP3 SWAP2 POP POP JUMP JUMPDEST PUSH1 0x0 DUP2 MLOAD SWAP1 POP SWAP2 SWAP1 POP JUMP JUMPDEST PUSH32 0x4E487B7100000000000000000000000000000000000000000000000000000000 PUSH1 0x0 MSTORE PUSH1 0x41 PUSH1 0x4 MSTORE PUSH1 0x24 PUSH1 0x0 REVERT JUMPDEST PUSH32 0x4E487B7100000000000000000000000000000000000000000000000000000000 PUSH1 0x0 MSTORE PUSH1 0x22 PUSH1 0x4 MSTORE PUSH1 0x24 PUSH1 0x0 REVERT JUMPDEST PUSH1 0x0 PUSH1 0x2 DUP3 DIV SWAP1 POP PUSH1 0x1 DUP3 AND DUP1 PUSH2 0x44B JUMPI PUSH1 0x7F DUP3 AND SWAP2 POP JUMPDEST PUSH1 0x20 DUP3 LT DUP2 SUB PUSH2 0x45E JUMPI PUSH2 0x45D PUSH2 0x404 JUMP JUMPDEST JUMPDEST POP SWAP2 SWAP1 POP JUMP JUMPDEST PUSH1 0x0 DUP2 SWAP1 POP DUP2 PUSH1 0x0 MSTORE PUSH1 0x20 PUSH1 0x0 KECCAK256 SWAP1 POP SWAP2 SWAP1 POP JUMP JUMPDEST PUSH1 0x0 PUSH1 0x20 PUSH1 0x1F DUP4 ADD DIV SWAP1 POP SWAP2 SWAP1 POP JUMP JUMPDEST PUSH1 0x0 DUP3 DUP3 SHL SWAP1 POP SWAP3 SWAP2 POP POP JUMP JUMPDEST PUSH1 0x0 PUSH1 0x8 DUP4 MUL PUSH2 0x4C6 PUSH32 0xFFFFFFFFFFFFFFFFFFFFFFFFFFFFFFFFFFFFFFFFFFFFFFFFFFFFFFFFFFFFFFFF DUP3 PUSH2 0x489 JUMP JUMPDEST PUSH2 0x4D0 DUP7 DUP4 PUSH2 0x489 JUMP JUMPDEST SWAP6 POP DUP1 NOT DUP5 AND SWAP4 POP DUP1 DUP7 AND DUP5 OR SWAP3 POP POP POP SWAP4 SWAP3 POP POP POP JUMP JUMPDEST PUSH1 0x0 DUP2 SWAP1 POP SWAP2 SWAP1 POP JUMP JUMPDEST PUSH1 0x0 PUSH2 0x50D PUSH2 0x508 PUSH2 0x503 DUP5 PUSH2 0x303 JUMP JUMPDEST PUSH2 0x4E8 JUMP JUMPDEST PUSH2 0x303 JUMP JUMPDEST SWAP1 POP SWAP2 SWAP1 POP JUMP JUMPDEST PUSH1 0x0 DUP2 SWAP1 POP SWAP2 SWAP1 POP JUMP JUMPDEST PUSH2 0x527 DUP4 PUSH2 0x4F2 JUMP JUMPDEST PUSH2 0x53B PUSH2 0x533 DUP3 PUSH2 0x514 JUMP JUMPDEST DUP5 DUP5 SLOAD PUSH2 0x496 JUMP JUMPDEST DUP3 SSTORE POP POP POP POP JUMP JUMPDEST PUSH1 0x0 SWAP1 JUMP JUMPDEST PUSH2 0x550 PUSH2 0x543 JUMP JUMPDEST PUSH2 0x55B DUP2 DUP5 DUP5 PUSH2 0x51E JUMP JUMPDEST POP POP POP JUMP JUMPDEST JUMPDEST DUP2 DUP2 LT ISZERO PUSH2 0x57F JUMPI PUSH2 0x574 PUSH1 0x0 DUP3 PUSH2 0x548 JUMP JUMPDEST PUSH1 0x1 DUP2 ADD SWAP1 POP PUSH2 0x561 JUMP JUMPDEST POP POP JUMP JUMPDEST PUSH1 0x1F DUP3 GT ISZERO PUSH2 0x5C4 JUMPI PUSH2 0x595 DUP2 PUSH2 0x464 JUMP JUMPDEST PUSH2 0x59E DUP5 PUSH2 0x479 JUMP JUMPDEST DUP2 ADD PUSH1 0x20 DUP6 LT ISZERO PUSH2 0x5AD JUMPI DUP2 SWAP1 POP JUMPDEST PUSH2 0x5C1 PUSH2 0x5B9 DUP6 PUSH2 0x479 JUMP JUMPDEST DUP4 ADD DUP3 PUSH2 0x560 JUMP JUMPDEST POP POP JUMPDEST POP POP POP JUMP JUMPDEST PUSH1 0x0 DUP3 DUP3 SHR SWAP1 POP SWAP3 SWAP2 POP POP JUMP JUMPDEST PUSH1 0x0 PUSH2 0x5E7 PUSH1 0x0 NOT DUP5 PUSH1 0x8 MUL PUSH2 0x5C9 JUMP JUMPDEST NOT DUP1 DUP4 AND SWAP2 POP POP SWAP3 SWAP2 POP POP JUMP JUMPDEST PUSH1 0x0 PUSH2 0x600 DUP4 DUP4 PUSH2 0x5D6 JUMP JUMPDEST SWAP2 POP DUP3 PUSH1 0x2 MUL DUP3 OR SWAP1 POP SWAP3 SWAP2 POP POP JUMP JUMPDEST PUSH2 0x619 DUP3 PUSH2 0x3CA JUMP JUMPDEST PUSH8 0xFFFFFFFFFFFFFFFF DUP2 GT ISZERO PUSH2 0x632 JUMPI PUSH2 0x631 PUSH2 0x3D5 JUMP JUMPDEST JUMPDEST PUSH2 0x63C DUP3 SLOAD PUSH2 0x433 JUMP JUMPDEST PUSH2 0x647 DUP3 DUP3 DUP6 PUSH2 0x583 JUMP JUMPDEST PUSH1 0x0 PUSH1 0x20 SWAP1 POP PUSH1 0x1F DUP4 GT PUSH1 0x1 DUP2 EQ PUSH2 0x67A JUMPI PUSH1 0x0 DUP5 ISZERO PUSH2 0x668 JUMPI DUP3 DUP8 ADD MLOAD SWAP1 POP JUMPDEST PUSH2 0x672 DUP6 DUP3 PUSH2 0x5F4 JUMP JUMPDEST DUP7 SSTORE POP PUSH2 0x6DA JUMP JUMPDEST PUSH1 0x1F NOT DUP5 AND PUSH2 0x688 DUP7 PUSH2 0x464 JUMP JUMPDEST PUSH1 0x0 JUMPDEST DUP3 DUP2 LT ISZERO PUSH2 0x6B0 JUMPI DUP5 DUP10 ADD MLOAD DUP3 SSTORE PUSH1 0x1 DUP3 ADD SWAP2 POP PUSH1 0x20 DUP6 ADD SWAP5 POP PUSH1 0x20 DUP2 ADD SWAP1 POP PUSH2 0x68B JUMP JUMPDEST DUP7 DUP4 LT ISZERO PUSH2 0x6CD JUMPI DUP5 DUP10 ADD MLOAD PUSH2 0x6C9 PUSH1 0x1F DUP10 AND DUP3 PUSH2 0x5D6 JUMP JUMPDEST DUP4 SSTORE POP JUMPDEST PUSH1 0x1 PUSH1 0x2 DUP9 MUL ADD DUP9 SSTORE POP POP POP JUMPDEST POP POP POP POP POP POP JUMP JUMPDEST PUSH2 0x3BA1 DUP1 PUSH2 0x6F1 PUSH1 0x0 CODECOPY PUSH1 0x0 RETURN INVALID PUSH1 0x80 PUSH1 0x40 MSTORE CALLVALUE DUP1 ISZERO PUSH2 0x10 JUMPI PUSH1 0x0 DUP1 REVERT JUMPDEST POP PUSH1 0x4 CALLDATASIZE LT PUSH2 0x232 JUMPI PUSH1 0x0 CALLDATALOAD PUSH1 0xE0 SHR DUP1 PUSH4 0x715018A6 GT PUSH2 0x130 JUMPI DUP1 PUSH4 0xB88D4FDE GT PUSH2 0xB8 JUMPI DUP1 PUSH4 0xF0020C9E GT PUSH2 0x7C JUMPI DUP1 PUSH4 0xF0020C9E EQ PUSH2 0x69A JUMPI DUP1 PUSH4 0xF28CB982 EQ PUSH2 0x6B8 JUMPI DUP1 PUSH4 0xF2FDE38B EQ PUSH2 0x6D6 JUMPI DUP1 PUSH4 0xF7C618C1 EQ PUSH2 0x6F2 JUMPI DUP1 PUSH4 0xFB7BE572 EQ PUSH2 0x710 JUMPI PUSH2 0x232 JUMP JUMPDEST DUP1 PUSH4 0xB88D4FDE EQ PUSH2 0x5E2 JUMPI DUP1 PUSH4 0xBEB9716D EQ PUSH2 0x5FE JUMPI DUP1 PUSH4 0xC87B56DD EQ PUSH2 0x61C JUMPI DUP1 PUSH4 0xE21C81D3 EQ PUSH2 0x64C JUMPI DUP1 PUSH4 0xE985E9C5 EQ PUSH2 0x66A JUMPI PUSH2 0x232 JUMP JUMPDEST DUP1 PUSH4 0x817B1CD2 GT PUSH2 0xFF JUMPI DUP1 PUSH4 0x817B1CD2 EQ PUSH2 0x550 JUMPI DUP1 PUSH4 0x8DA5CB5B EQ PUSH2 0x56E JUMPI DUP1 PUSH4 0x95D89B41 EQ PUSH2 0x58C JUMPI DUP1 PUSH4 0xA22CB465 EQ PUSH2 0x5AA JUMPI DUP1 PUSH4 0xA694FC3A EQ PUSH2 0x5C6 JUMPI PUSH2 0x232 JUMP JUMPDEST DUP1 PUSH4 0x715018A6 EQ PUSH2 0x4EA JUMPI DUP1 PUSH4 0x72F702F3 EQ PUSH2 0x4F4 JUMPI DUP1 PUSH4 0x74A4030F EQ PUSH2 0x512 JUMPI DUP1 PUSH4 0x8005A7DE EQ PUSH2 0x532 JUMPI PUSH2 0x232 JUMP JUMPDEST DUP1 PUSH4 0x26BA27E3 GT PUSH2 0x1BE JUMPI DUP1 PUSH4 0x5C9C80C7 GT PUSH2 0x182 JUMPI DUP1 PUSH4 0x5C9C80C7 EQ PUSH2 0x420 JUMPI DUP1 PUSH4 0x6352211E EQ PUSH2 0x450 JUMPI DUP1 PUSH4 0x641CCD83 EQ PUSH2 0x480 JUMPI DUP1 PUSH4 0x6ABFD183 EQ PUSH2 0x49C JUMPI DUP1 PUSH4 0x70A08231 EQ PUSH2 0x4BA JUMPI PUSH2 0x232 JUMP JUMPDEST DUP1 PUSH4 0x26BA27E3 EQ PUSH2 0x37C JUMPI DUP1 PUSH4 0x2E1A7D4D EQ PUSH2 0x39A JUMPI DUP1 PUSH4 0x30188EE8 EQ PUSH2 0x3B6 JUMPI DUP1 PUSH4 0x42842E0E EQ PUSH2 0x3D4 JUMPI DUP1 PUSH4 0x4552A114 EQ PUSH2 0x3F0 JUMPI PUSH2 0x232 JUMP JUMPDEST DUP1 PUSH4 0x95EA7B3 GT PUSH2 0x205 JUMPI DUP1 PUSH4 0x95EA7B3 EQ PUSH2 0x2D3 JUMPI DUP1 PUSH4 0xE15561A EQ PUSH2 0x2EF JUMPI DUP1 PUSH4 0x16934FC4 EQ PUSH2 0x30D JUMPI DUP1 PUSH4 0x2004FFD9 EQ PUSH2 0x342 JUMPI DUP1 PUSH4 0x23B872DD EQ PUSH2 0x360 JUMPI PUSH2 0x232 JUMP JUMPDEST DUP1 PUSH4 0x1FFC9A7 EQ PUSH2 0x237 JUMPI DUP1 PUSH4 0x3BF7AB3 EQ PUSH2 0x267 JUMPI DUP1 PUSH4 0x6FDDE03 EQ PUSH2 0x285 JUMPI DUP1 PUSH4 0x81812FC EQ PUSH2 0x2A3 JUMPI JUMPDEST PUSH1 0x0 DUP1 REVERT JUMPDEST PUSH2 0x251 PUSH1 0x4 DUP1 CALLDATASIZE SUB DUP2 ADD SWAP1 PUSH2 0x24C SWAP2 SWAP1 PUSH2 0x2C36 JUMP JUMPDEST PUSH2 0x72E JUMP JUMPDEST PUSH1 0x40 MLOAD PUSH2 0x25E SWAP2 SWAP1 PUSH2 0x2C7E JUMP JUMPDEST PUSH1 0x40 MLOAD DUP1 SWAP2 SUB SWAP1 RETURN JUMPDEST PUSH2 0x26F PUSH2 0x810 JUMP JUMPDEST PUSH1 0x40 MLOAD PUSH2 0x27C SWAP2 SWAP1 PUSH2 0x2CB2 JUMP JUMPDEST PUSH1 0x40 MLOAD DUP1 SWAP2 SUB SWAP1 RETURN JUMPDEST PUSH2 0x28D PUSH2 0x853 JUMP JUMPDEST PUSH1 0x40 MLOAD PUSH2 0x29A SWAP2 SWAP1 PUSH2 0x2D5D JUMP JUMPDEST PUSH1 0x40 MLOAD DUP1 SWAP2 SUB SWAP1 RETURN JUMPDEST PUSH2 0x2BD PUSH1 0x4 DUP1 CALLDATASIZE SUB DUP2 ADD SWAP1 PUSH2 0x2B8 SWAP2 SWAP1 PUSH2 0x2DAB JUMP JUMPDEST PUSH2 0x8E5 JUMP JUMPDEST PUSH1 0x40 MLOAD PUSH2 0x2CA SWAP2 SWAP1 PUSH2 0x2E19 JUMP JUMPDEST PUSH1 0x40 MLOAD DUP1 SWAP2 SUB SWAP1 RETURN JUMPDEST PUSH2 0x2ED PUSH1 0x4 DUP1 CALLDATASIZE SUB DUP2 ADD SWAP1 PUSH2 0x2E8 SWAP2 SWAP1 PUSH2 0x2E60 JUMP JUMPDEST PUSH2 0x901 JUMP JUMPDEST STOP JUMPDEST PUSH2 0x2F7 PUSH2 0x917 JUMP JUMPDEST PUSH1 0x40 MLOAD PUSH2 0x304 SWAP2 SWAP1 PUSH2 0x2CB2 JUMP JUMPDEST PUSH1 0x40 MLOAD DUP1 SWAP2 SUB SWAP1 RETURN JUMPDEST PUSH2 0x327 PUSH1 0x4 DUP1 CALLDATASIZE SUB DUP2 ADD SWAP1 PUSH2 0x322 SWAP2 SWAP1 PUSH2 0x2EA0 JUMP JUMPDEST PUSH2 0x91D JUMP JUMPDEST PUSH1 0x40 MLOAD PUSH2 0x339 SWAP7 SWAP6 SWAP5 SWAP4 SWAP3 SWAP2 SWAP1 PUSH2 0x2ECD JUMP JUMPDEST PUSH1 0x40 MLOAD DUP1 SWAP2 SUB SWAP1 RETURN JUMPDEST PUSH2 0x34A PUSH2 0x966 JUMP JUMPDEST PUSH1 0x40 MLOAD PUSH2 0x357 SWAP2 SWAP1 PUSH2 0x2CB2 JUMP JUMPDEST PUSH1 0x40 MLOAD DUP1 SWAP2 SUB SWAP1 RETURN JUMPDEST PUSH2 0x37A PUSH1 0x4 DUP1 CALLDATASIZE SUB DUP2 ADD SWAP1 PUSH2 0x375 SWAP2 SWAP1 PUSH2 0x2F2E JUMP JUMPDEST PUSH2 0xB40 JUMP JUMPDEST STOP JUMPDEST PUSH2 0x384 PUSH2 0xC42 JUMP JUMPDEST PUSH1 0x40 MLOAD PUSH2 0x391 SWAP2 SWAP1 PUSH2 0x2CB2 JUMP JUMPDEST PUSH1 0x40 MLOAD DUP1 SWAP2 SUB SWAP1 RETURN JUMPDEST PUSH2 0x3B4 PUSH1 0x4 DUP1 CALLDATASIZE SUB DUP2 ADD SWAP1 PUSH2 0x3AF SWAP2 SWAP1 PUSH2 0x2DAB JUMP JUMPDEST PUSH2 0xC48 JUMP JUMPDEST STOP JUMPDEST PUSH2 0x3BE PUSH2 0xFC2 JUMP JUMPDEST PUSH1 0x40 MLOAD PUSH2 0x3CB SWAP2 SWAP1 PUSH2 0x2CB2 JUMP JUMPDEST PUSH1 0x40 MLOAD DUP1 SWAP2 SUB SWAP1 RETURN JUMPDEST PUSH2 0x3EE PUSH1 0x4 DUP1 CALLDATASIZE SUB DUP2 ADD SWAP1 PUSH2 0x3E9 SWAP2 SWAP1 PUSH2 0x2F2E JUMP JUMPDEST PUSH2 0xFC8 JUMP JUMPDEST STOP JUMPDEST PUSH2 0x40A PUSH1 0x4 DUP1 CALLDATASIZE SUB DUP2 ADD SWAP1 PUSH2 0x405 SWAP2 SWAP1 PUSH2 0x2EA0 JUMP JUMPDEST PUSH2 0xFE8 JUMP JUMPDEST PUSH1 0x40 MLOAD PUSH2 0x417 SWAP2 SWAP1 PUSH2 0x2CB2 JUMP JUMPDEST PUSH1 0x40 MLOAD DUP1 SWAP2 SUB SWAP1 RETURN JUMPDEST PUSH2 0x43A PUSH1 0x4 DUP1 CALLDATASIZE SUB DUP2 ADD SWAP1 PUSH2 0x435 SWAP2 SWAP1 PUSH2 0x2DAB JUMP JUMPDEST PUSH2 0x1000 JUMP JUMPDEST PUSH1 0x40 MLOAD PUSH2 0x447 SWAP2 SWAP1 PUSH2 0x2E19 JUMP JUMPDEST PUSH1 0x40 MLOAD DUP1 SWAP2 SUB SWAP1 RETURN JUMPDEST PUSH2 0x46A PUSH1 0x4 DUP1 CALLDATASIZE SUB DUP2 ADD SWAP1 PUSH2 0x465 SWAP2 SWAP1 PUSH2 0x2DAB JUMP JUMPDEST PUSH2 0x1033 JUMP JUMPDEST PUSH1 0x40 MLOAD PUSH2 0x477 SWAP2 SWAP1 PUSH2 0x2E19 JUMP JUMPDEST PUSH1 0x40 MLOAD DUP1 SWAP2 SUB SWAP1 RETURN JUMPDEST PUSH2 0x49A PUSH1 0x4 DUP1 CALLDATASIZE SUB DUP2 ADD SWAP1 PUSH2 0x495 SWAP2 SWAP1 PUSH2 0x2F81 JUMP JUMPDEST PUSH2 0x1045 JUMP JUMPDEST STOP JUMPDEST PUSH2 0x4A4 PUSH2 0x109E JUMP JUMPDEST PUSH1 0x40 MLOAD PUSH2 0x4B1 SWAP2 SWAP1 PUSH2 0x2CB2 JUMP JUMPDEST PUSH1 0x40 MLOAD DUP1 SWAP2 SUB SWAP1 RETURN JUMPDEST PUSH2 0x4D4 PUSH1 0x4 DUP1 CALLDATASIZE SUB DUP2 ADD SWAP1 PUSH2 0x4CF SWAP2 SWAP1 PUSH2 0x2EA0 JUMP JUMPDEST PUSH2 0x10A4 JUMP JUMPDEST PUSH1 0x40 MLOAD PUSH2 0x4E1 SWAP2 SWAP1 PUSH2 0x2CB2 JUMP JUMPDEST PUSH1 0x40 MLOAD DUP1 SWAP2 SUB SWAP1 RETURN JUMPDEST PUSH2 0x4F2 PUSH2 0x115E JUMP JUMPDEST STOP JUMPDEST PUSH2 0x4FC PUSH2 0x1172 JUMP JUMPDEST PUSH1 0x40 MLOAD PUSH2 0x509 SWAP2 SWAP1 PUSH2 0x3033 JUMP JUMPDEST PUSH1 0x40 MLOAD DUP1 SWAP2 SUB SWAP1 RETURN JUMPDEST PUSH2 0x51A PUSH2 0x1198 JUMP JUMPDEST PUSH1 0x40 MLOAD PUSH2 0x529 SWAP4 SWAP3 SWAP2 SWAP1 PUSH2 0x304E JUMP JUMPDEST PUSH1 0x40 MLOAD DUP1 SWAP2 SUB SWAP1 RETURN JUMPDEST PUSH2 0x53A PUSH2 0x1236 JUMP JUMPDEST PUSH1 0x40 MLOAD PUSH2 0x547 SWAP2 SWAP1 PUSH2 0x2CB2 JUMP JUMPDEST PUSH1 0x40 MLOAD DUP1 SWAP2 SUB SWAP1 RETURN JUMPDEST PUSH2 0x558 PUSH2 0x123C JUMP JUMPDEST PUSH1 0x40 MLOAD PUSH2 0x565 SWAP2 SWAP1 PUSH2 0x2CB2 JUMP JUMPDEST PUSH1 0x40 MLOAD DUP1 SWAP2 SUB SWAP1 RETURN JUMPDEST PUSH2 0x576 PUSH2 0x1242 JUMP JUMPDEST PUSH1 0x40 MLOAD PUSH2 0x583 SWAP2 SWAP1 PUSH2 0x2E19 JUMP JUMPDEST PUSH1 0x40 MLOAD DUP1 SWAP2 SUB SWAP1 RETURN JUMPDEST PUSH2 0x594 PUSH2 0x126B JUMP JUMPDEST PUSH1 0x40 MLOAD PUSH2 0x5A1 SWAP2 SWAP1 PUSH2 0x2D5D JUMP JUMPDEST PUSH1 0x40 MLOAD DUP1 SWAP2 SUB SWAP1 RETURN JUMPDEST PUSH2 0x5C4 PUSH1 0x4 DUP1 CALLDATASIZE SUB DUP2 ADD SWAP1 PUSH2 0x5BF SWAP2 SWAP1 PUSH2 0x30B1 JUMP JUMPDEST PUSH2 0x12FD JUMP JUMPDEST STOP JUMPDEST PUSH2 0x5E0 PUSH1 0x4 DUP1 CALLDATASIZE SUB DUP2 ADD SWAP1 PUSH2 0x5DB SWAP2 SWAP1 PUSH2 0x2DAB JUMP JUMPDEST PUSH2 0x1313 JUMP JUMPDEST STOP JUMPDEST PUSH2 0x5FC PUSH1 0x4 DUP1 CALLDATASIZE SUB DUP2 ADD SWAP1 PUSH2 0x5F7 SWAP2 SWAP1 PUSH2 0x3226 JUMP JUMPDEST PUSH2 0x15D7 JUMP JUMPDEST STOP JUMPDEST PUSH2 0x606 PUSH2 0x15FC JUMP JUMPDEST PUSH1 0x40 MLOAD PUSH2 0x613 SWAP2 SWAP1 PUSH2 0x2C7E JUMP JUMPDEST PUSH1 0x40 MLOAD DUP1 SWAP2 SUB SWAP1 RETURN JUMPDEST PUSH2 0x636 PUSH1 0x4 DUP1 CALLDATASIZE SUB DUP2 ADD SWAP1 PUSH2 0x631 SWAP2 SWAP1 PUSH2 0x2DAB JUMP JUMPDEST PUSH2 0x1737 JUMP JUMPDEST PUSH1 0x40 MLOAD PUSH2 0x643 SWAP2 SWAP1 PUSH2 0x2D5D JUMP JUMPDEST PUSH1 0x40 MLOAD DUP1 SWAP2 SUB SWAP1 RETURN JUMPDEST PUSH2 0x654 PUSH2 0x17A0 JUMP JUMPDEST PUSH1 0x40 MLOAD PUSH2 0x661 SWAP2 SWAP1 PUSH2 0x2CB2 JUMP JUMPDEST PUSH1 0x40 MLOAD DUP1 SWAP2 SUB SWAP1 RETURN JUMPDEST PUSH2 0x684 PUSH1 0x4 DUP1 CALLDATASIZE SUB DUP2 ADD SWAP1 PUSH2 0x67F SWAP2 SWAP1 PUSH2 0x32A9 JUMP JUMPDEST PUSH2 0x17A6 JUMP JUMPDEST PUSH1 0x40 MLOAD PUSH2 0x691 SWAP2 SWAP1 PUSH2 0x2C7E JUMP JUMPDEST PUSH1 0x40 MLOAD DUP1 SWAP2 SUB SWAP1 RETURN JUMPDEST PUSH2 0x6A2 PUSH2 0x183A JUMP JUMPDEST PUSH1 0x40 MLOAD PUSH2 0x6AF SWAP2 SWAP1 PUSH2 0x2CB2 JUMP JUMPDEST PUSH1 0x40 MLOAD DUP1 SWAP2 SUB SWAP1 RETURN JUMPDEST PUSH2 0x6C0 PUSH2 0x1840 JUMP JUMPDEST PUSH1 0x40 MLOAD PUSH2 0x6CD SWAP2 SWAP1 PUSH2 0x2CB2 JUMP JUMPDEST PUSH1 0x40 MLOAD DUP1 SWAP2 SUB SWAP1 RETURN JUMPDEST PUSH2 0x6F0 PUSH1 0x4 DUP1 CALLDATASIZE SUB DUP2 ADD SWAP1 PUSH2 0x6EB SWAP2 SWAP1 PUSH2 0x2EA0 JUMP JUMPDEST PUSH2 0x1917 JUMP JUMPDEST STOP JUMPDEST PUSH2 0x6FA PUSH2 0x199D JUMP JUMPDEST PUSH1 0x40 MLOAD PUSH2 0x707 SWAP2 SWAP1 PUSH2 0x3033 JUMP JUMPDEST PUSH1 0x40 MLOAD DUP1 SWAP2 SUB SWAP1 RETURN JUMPDEST PUSH2 0x718 PUSH2 0x19C3 JUMP JUMPDEST PUSH1 0x40 MLOAD PUSH2 0x725 SWAP2 SWAP1 PUSH2 0x2CB2 JUMP JUMPDEST PUSH1 0x40 MLOAD DUP1 SWAP2 SUB SWAP1 RETURN JUMPDEST PUSH1 0x0 PUSH32 0x80AC58CD00000000000000000000000000000000000000000000000000000000 PUSH28 0xFFFFFFFFFFFFFFFFFFFFFFFFFFFFFFFFFFFFFFFFFFFFFFFFFFFFFFFF NOT AND DUP3 PUSH28 0xFFFFFFFFFFFFFFFFFFFFFFFFFFFFFFFFFFFFFFFFFFFFFFFFFFFFFFFF NOT AND EQ DUP1 PUSH2 0x7F9 JUMPI POP PUSH32 0x5B5E139F00000000000000000000000000000000000000000000000000000000 PUSH28 0xFFFFFFFFFFFFFFFFFFFFFFFFFFFFFFFFFFFFFFFFFFFFFFFFFFFFFFFF NOT AND DUP3 PUSH28 0xFFFFFFFFFFFFFFFFFFFFFFFFFFFFFFFFFFFFFFFFFFFFFFFFFFFFFFFF NOT AND EQ JUMPDEST DUP1 PUSH2 0x809 JUMPI POP PUSH2 0x808 DUP3 PUSH2 0x1BB7 JUMP JUMPDEST JUMPDEST SWAP1 POP SWAP2 SWAP1 POP JUMP JUMPDEST PUSH1 0x0 DUP1 PUSH1 0x14 SLOAD PUSH1 0x11 SLOAD PUSH1 0x12 SLOAD PUSH2 0x826 SWAP2 SWAP1 PUSH2 0x3318 JUMP JUMPDEST PUSH2 0x830 SWAP2 SWAP1 PUSH2 0x3318 JUMP JUMPDEST SWAP1 POP DUP1 TIMESTAMP GT PUSH2 0x84A JUMPI TIMESTAMP DUP2 PUSH2 0x845 SWAP2 SWAP1 PUSH2 0x334C JUMP JUMPDEST PUSH2 0x84D JUMP JUMPDEST PUSH1 0x0 JUMPDEST SWAP2 POP POP SWAP1 JUMP JUMPDEST PUSH1 0x60 PUSH1 0x1 DUP1 SLOAD PUSH2 0x862 SWAP1 PUSH2 0x33AF JUMP JUMPDEST DUP1 PUSH1 0x1F ADD PUSH1 0x20 DUP1 SWAP2 DIV MUL PUSH1 0x20 ADD PUSH1 0x40 MLOAD SWAP1 DUP2 ADD PUSH1 0x40 MSTORE DUP1 SWAP3 SWAP2 SWAP1 DUP2 DUP2 MSTORE PUSH1 0x20 ADD DUP3 DUP1 SLOAD PUSH2 0x88E SWAP1 PUSH2 0x33AF JUMP JUMPDEST DUP1 ISZERO PUSH2 0x8DB JUMPI DUP1 PUSH1 0x1F LT PUSH2 0x8B0 JUMPI PUSH2 0x100 DUP1 DUP4 SLOAD DIV MUL DUP4 MSTORE SWAP2 PUSH1 0x20 ADD SWAP2 PUSH2 0x8DB JUMP JUMPDEST DUP3 ADD SWAP2 SWAP1 PUSH1 0x0 MSTORE PUSH1 0x20 PUSH1 0x0 KECCAK256 SWAP1 JUMPDEST DUP2 SLOAD DUP2 MSTORE SWAP1 PUSH1 0x1 ADD SWAP1 PUSH1 0x20 ADD DUP1 DUP4 GT PUSH2 0x8BE JUMPI DUP3 SWAP1 SUB PUSH1 0x1F AND DUP3 ADD SWAP2 JUMPDEST POP POP POP POP POP SWAP1 POP SWAP1 JUMP JUMPDEST PUSH1 0x0 PUSH2 0x8F0 DUP3 PUSH2 0x1C21 JUMP JUMPDEST POP PUSH2 0x8FA DUP3 PUSH2 0x1CA9 JUMP JUMPDEST SWAP1 POP SWAP2 SWAP1 POP JUMP JUMPDEST PUSH2 0x913 DUP3 DUP3 PUSH2 0x90E PUSH2 0x1CE6 JUMP JUMPDEST PUSH2 0x1CEE JUMP JUMPDEST POP POP JUMP JUMPDEST PUSH1 0xE SLOAD DUP2 JUMP JUMPDEST PUSH1 0x9 PUSH1 0x20 MSTORE DUP1 PUSH1 0x0 MSTORE PUSH1 0x40 PUSH1 0x0 KECCAK256 PUSH1 0x0 SWAP2 POP SWAP1 POP DUP1 PUSH1 0x0 ADD SLOAD SWAP1 DUP1 PUSH1 0x1 ADD SLOAD SWAP1 DUP1 PUSH1 0x2 ADD SLOAD SWAP1 DUP1 PUSH1 0x3 ADD SLOAD SWAP1 DUP1 PUSH1 0x4 ADD SLOAD SWAP1 DUP1 PUSH1 0x5 ADD PUSH1 0x0 SWAP1 SLOAD SWAP1 PUSH2 0x100 EXP SWAP1 DIV PUSH1 0xFF AND SWAP1 POP DUP7 JUMP JUMPDEST PUSH1 0x0 PUSH2 0x970 PUSH2 0x15FC JUMP JUMPDEST PUSH2 0x9AF JUMPI PUSH1 0x40 MLOAD PUSH32 0x8C379A000000000000000000000000000000000000000000000000000000000 DUP2 MSTORE PUSH1 0x4 ADD PUSH2 0x9A6 SWAP1 PUSH2 0x342C JUMP JUMPDEST PUSH1 0x40 MLOAD DUP1 SWAP2 SUB SWAP1 REVERT JUMPDEST PUSH1 0x0 PUSH1 0x9 PUSH1 0x0 CALLER PUSH20 0xFFFFFFFFFFFFFFFFFFFFFFFFFFFFFFFFFFFFFFFF AND PUSH20 0xFFFFFFFFFFFFFFFFFFFFFFFFFFFFFFFFFFFFFFFF AND DUP2 MSTORE PUSH1 0x20 ADD SWAP1 DUP2 MSTORE PUSH1 0x20 ADD PUSH1 0x0 KECCAK256 SWAP1 POP PUSH1 0x0 PUSH1 0xA SLOAD SWAP1 POP PUSH2 0xA03 CALLER DUP3 PUSH2 0x1D00 JUMP JUMPDEST PUSH1 0x1 PUSH1 0xA PUSH1 0x0 DUP3 DUP3 SLOAD PUSH2 0xA16 SWAP2 SWAP1 PUSH2 0x3318 JUMP JUMPDEST SWAP3 POP POP DUP2 SWAP1 SSTORE POP PUSH1 0x1 DUP3 PUSH1 0x5 ADD PUSH1 0x0 PUSH2 0x100 EXP DUP2 SLOAD DUP2 PUSH1 0xFF MUL NOT AND SWAP1 DUP4 ISZERO ISZERO MUL OR SWAP1 SSTORE POP DUP1 PUSH1 0x7 PUSH1 0x0 CALLER PUSH20 0xFFFFFFFFFFFFFFFFFFFFFFFFFFFFFFFFFFFFFFFF AND PUSH20 0xFFFFFFFFFFFFFFFFFFFFFFFFFFFFFFFFFFFFFFFF AND DUP2 MSTORE PUSH1 0x20 ADD SWAP1 DUP2 MSTORE PUSH1 0x20 ADD PUSH1 0x0 KECCAK256 DUP2 SWAP1 SSTORE POP CALLER PUSH1 0x8 PUSH1 0x0 DUP4 DUP2 MSTORE PUSH1 0x20 ADD SWAP1 DUP2 MSTORE PUSH1 0x20 ADD PUSH1 0x0 KECCAK256 PUSH1 0x0 PUSH2 0x100 EXP DUP2 SLOAD DUP2 PUSH20 0xFFFFFFFFFFFFFFFFFFFFFFFFFFFFFFFFFFFFFFFF MUL NOT AND SWAP1 DUP4 PUSH20 0xFFFFFFFFFFFFFFFFFFFFFFFFFFFFFFFFFFFFFFFF AND MUL OR SWAP1 SSTORE POP PUSH1 0x1 PUSH1 0x13 PUSH1 0x0 DUP3 DUP3 SLOAD PUSH2 0xAE3 SWAP2 SWAP1 PUSH2 0x3318 JUMP JUMPDEST SWAP3 POP POP DUP2 SWAP1 SSTORE POP CALLER PUSH20 0xFFFFFFFFFFFFFFFFFFFFFFFFFFFFFFFFFFFFFFFF AND PUSH32 0xB9144C96C86541F6FA89C9F2F02495CCCF4B08CD6643E26D34EE00AA586558A8 DUP3 PUSH1 0x40 MLOAD PUSH2 0xB30 SWAP2 SWAP1 PUSH2 0x2CB2 JUMP JUMPDEST PUSH1 0x40 MLOAD DUP1 SWAP2 SUB SWAP1 LOG2 DUP1 SWAP3 POP POP POP SWAP1 JUMP JUMPDEST PUSH1 0x0 PUSH20 0xFFFFFFFFFFFFFFFFFFFFFFFFFFFFFFFFFFFFFFFF AND DUP3 PUSH20 0xFFFFFFFFFFFFFFFFFFFFFFFFFFFFFFFFFFFFFFFF AND SUB PUSH2 0xBB2 JUMPI PUSH1 0x0 PUSH1 0x40 MLOAD PUSH32 0x64A0AE9200000000000000000000000000000000000000000000000000000000 DUP2 MSTORE PUSH1 0x4 ADD PUSH2 0xBA9 SWAP2 SWAP1 PUSH2 0x2E19 JUMP JUMPDEST PUSH1 0x40 MLOAD DUP1 SWAP2 SUB SWAP1 REVERT JUMPDEST PUSH1 0x0 PUSH2 0xBC6 DUP4 DUP4 PUSH2 0xBC1 PUSH2 0x1CE6 JUMP JUMPDEST PUSH2 0x1D1E JUMP JUMPDEST SWAP1 POP DUP4 PUSH20 0xFFFFFFFFFFFFFFFFFFFFFFFFFFFFFFFFFFFFFFFF AND DUP2 PUSH20 0xFFFFFFFFFFFFFFFFFFFFFFFFFFFFFFFFFFFFFFFF AND EQ PUSH2 0xC3C JUMPI DUP4 DUP3 DUP3 PUSH1 0x40 MLOAD PUSH32 0x64283D7B00000000000000000000000000000000000000000000000000000000 DUP2 MSTORE PUSH1 0x4 ADD PUSH2 0xC33 SWAP4 SWAP3 SWAP2 SWAP1 PUSH2 0x344C JUMP JUMPDEST PUSH1 0x40 MLOAD DUP1 SWAP2 SUB SWAP1 REVERT JUMPDEST POP POP POP POP JUMP JUMPDEST PUSH1 0x13 SLOAD DUP2 JUMP JUMPDEST PUSH1 0x0 PUSH1 0x9 PUSH1 0x0 CALLER PUSH20 0xFFFFFFFFFFFFFFFFFFFFFFFFFFFFFFFFFFFFFFFF AND PUSH20 0xFFFFFFFFFFFFFFFFFFFFFFFFFFFFFFFFFFFFFFFF AND DUP2 MSTORE PUSH1 0x20 ADD SWAP1 DUP2 MSTORE PUSH1 0x20 ADD PUSH1 0x0 KECCAK256 SWAP1 POP DUP2 DUP2 PUSH1 0x0 ADD SLOAD LT ISZERO PUSH2 0xCD2 JUMPI PUSH1 0x40 MLOAD PUSH32 0x8C379A000000000000000000000000000000000000000000000000000000000 DUP2 MSTORE PUSH1 0x4 ADD PUSH2 0xCC9 SWAP1 PUSH2 0x34CF JUMP JUMPDEST PUSH1 0x40 MLOAD DUP1 SWAP2 SUB SWAP1 REVERT JUMPDEST PUSH1 0x0 PUSH2 0xCDD CALLER PUSH2 0x1F38 JUMP JUMPDEST SWAP1 POP DUP1 DUP3 PUSH1 0x1 ADD PUSH1 0x0 DUP3 DUP3 SLOAD PUSH2 0xCF3 SWAP2 SWAP1 PUSH2 0x3318 JUMP JUMPDEST SWAP3 POP POP DUP2 SWAP1 SSTORE POP PUSH1 0xE SLOAD DUP3 PUSH1 0x1 ADD SLOAD PUSH1 0x10 SLOAD PUSH2 0xD0F SWAP2 SWAP1 PUSH2 0x3318 JUMP JUMPDEST GT ISZERO PUSH2 0xD50 JUMPI PUSH1 0x40 MLOAD PUSH32 0x8C379A000000000000000000000000000000000000000000000000000000000 DUP2 MSTORE PUSH1 0x4 ADD PUSH2 0xD47 SWAP1 PUSH2 0x353B JUMP JUMPDEST PUSH1 0x40 MLOAD DUP1 SWAP2 SUB SWAP1 REVERT JUMPDEST PUSH1 0xB PUSH1 0x0 SWAP1 SLOAD SWAP1 PUSH2 0x100 EXP SWAP1 DIV PUSH20 0xFFFFFFFFFFFFFFFFFFFFFFFFFFFFFFFFFFFFFFFF AND PUSH20 0xFFFFFFFFFFFFFFFFFFFFFFFFFFFFFFFFFFFFFFFF AND PUSH4 0xA9059CBB CALLER DUP6 PUSH1 0x40 MLOAD DUP4 PUSH4 0xFFFFFFFF AND PUSH1 0xE0 SHL DUP2 MSTORE PUSH1 0x4 ADD PUSH2 0xDAD SWAP3 SWAP2 SWAP1 PUSH2 0x355B JUMP JUMPDEST PUSH1 0x20 PUSH1 0x40 MLOAD DUP1 DUP4 SUB DUP2 PUSH1 0x0 DUP8 GAS CALL ISZERO DUP1 ISZERO PUSH2 0xDCC JUMPI RETURNDATASIZE PUSH1 0x0 DUP1 RETURNDATACOPY RETURNDATASIZE PUSH1 0x0 REVERT JUMPDEST POP POP POP POP PUSH1 0x40 MLOAD RETURNDATASIZE PUSH1 0x1F NOT PUSH1 0x1F DUP3 ADD AND DUP3 ADD DUP1 PUSH1 0x40 MSTORE POP DUP2 ADD SWAP1 PUSH2 0xDF0 SWAP2 SWAP1 PUSH2 0x3599 JUMP JUMPDEST PUSH2 0xE2F JUMPI PUSH1 0x40 MLOAD PUSH32 0x8C379A000000000000000000000000000000000000000000000000000000000 DUP2 MSTORE PUSH1 0x4 ADD PUSH2 0xE26 SWAP1 PUSH2 0x3612 JUMP JUMPDEST PUSH1 0x40 MLOAD DUP1 SWAP2 SUB SWAP1 REVERT JUMPDEST PUSH1 0xC PUSH1 0x0 SWAP1 SLOAD SWAP1 PUSH2 0x100 EXP SWAP1 DIV PUSH20 0xFFFFFFFFFFFFFFFFFFFFFFFFFFFFFFFFFFFFFFFF AND PUSH20 0xFFFFFFFFFFFFFFFFFFFFFFFFFFFFFFFFFFFFFFFF AND PUSH4 0xA9059CBB CALLER DUP5 PUSH1 0x1 ADD SLOAD PUSH1 0x40 MLOAD DUP4 PUSH4 0xFFFFFFFF AND PUSH1 0xE0 SHL DUP2 MSTORE PUSH1 0x4 ADD PUSH2 0xE90 SWAP3 SWAP2 SWAP1 PUSH2 0x355B JUMP JUMPDEST PUSH1 0x20 PUSH1 0x40 MLOAD DUP1 DUP4 SUB DUP2 PUSH1 0x0 DUP8 GAS CALL ISZERO DUP1 ISZERO PUSH2 0xEAF JUMPI RETURNDATASIZE PUSH1 0x0 DUP1 RETURNDATACOPY RETURNDATASIZE PUSH1 0x0 REVERT JUMPDEST POP POP POP POP PUSH1 0x40 MLOAD RETURNDATASIZE PUSH1 0x1F NOT PUSH1 0x1F DUP3 ADD AND DUP3 ADD DUP1 PUSH1 0x40 MSTORE POP DUP2 ADD SWAP1 PUSH2 0xED3 SWAP2 SWAP1 PUSH2 0x3599 JUMP JUMPDEST PUSH2 0xF12 JUMPI PUSH1 0x40 MLOAD PUSH32 0x8C379A000000000000000000000000000000000000000000000000000000000 DUP2 MSTORE PUSH1 0x4 ADD PUSH2 0xF09 SWAP1 PUSH2 0x367E JUMP JUMPDEST PUSH1 0x40 MLOAD DUP1 SWAP2 SUB SWAP1 REVERT JUMPDEST DUP3 DUP3 PUSH1 0x0 ADD PUSH1 0x0 DUP3 DUP3 SLOAD PUSH2 0xF26 SWAP2 SWAP1 PUSH2 0x334C JUMP JUMPDEST SWAP3 POP POP DUP2 SWAP1 SSTORE POP DUP3 PUSH1 0xD PUSH1 0x0 DUP3 DUP3 SLOAD PUSH2 0xF3F SWAP2 SWAP1 PUSH2 0x334C JUMP JUMPDEST SWAP3 POP POP DUP2 SWAP1 SSTORE POP DUP2 PUSH1 0x1 ADD SLOAD PUSH1 0x10 PUSH1 0x0 DUP3 DUP3 SLOAD PUSH2 0xF5C SWAP2 SWAP1 PUSH2 0x3318 JUMP JUMPDEST SWAP3 POP POP DUP2 SWAP1 SSTORE POP PUSH1 0x0 DUP3 PUSH1 0x1 ADD DUP2 SWAP1 SSTORE POP CALLER PUSH20 0xFFFFFFFFFFFFFFFFFFFFFFFFFFFFFFFFFFFFFFFF AND PUSH32 0x92CCF450A286A957AF52509BC1C9939D1A6A481783E142E41E2499F0BB66EBC6 DUP5 DUP4 PUSH1 0x40 MLOAD PUSH2 0xFB5 SWAP3 SWAP2 SWAP1 PUSH2 0x369E JUMP JUMPDEST PUSH1 0x40 MLOAD DUP1 SWAP2 SUB SWAP1 LOG2 POP POP POP JUMP JUMPDEST PUSH1 0x10 SLOAD DUP2 JUMP JUMPDEST PUSH2 0xFE3 DUP4 DUP4 DUP4 PUSH1 0x40 MLOAD DUP1 PUSH1 0x20 ADD PUSH1 0x40 MSTORE DUP1 PUSH1 0x0 DUP2 MSTORE POP PUSH2 0x15D7 JUMP JUMPDEST POP POP POP JUMP JUMPDEST PUSH1 0x7 PUSH1 0x20 MSTORE DUP1 PUSH1 0x0 MSTORE PUSH1 0x40 PUSH1 0x0 KECCAK256 PUSH1 0x0 SWAP2 POP SWAP1 POP SLOAD DUP2 JUMP JUMPDEST PUSH1 0x8 PUSH1 0x20 MSTORE DUP1 PUSH1 0x0 MSTORE PUSH1 0x40 PUSH1 0x0 KECCAK256 PUSH1 0x0 SWAP2 POP SLOAD SWAP1 PUSH2 0x100 EXP SWAP1 DIV PUSH20 0xFFFFFFFFFFFFFFFFFFFFFFFFFFFFFFFFFFFFFFFF AND DUP2 JUMP JUMPDEST PUSH1 0x0 PUSH2 0x103E DUP3 PUSH2 0x1C21 JUMP JUMPDEST SWAP1 POP SWAP2 SWAP1 POP JUMP JUMPDEST PUSH2 0x104D PUSH2 0x2069 JUMP JUMPDEST PUSH1 0x64 DUP3 PUSH1 0x64 PUSH2 0x105C SWAP2 SWAP1 PUSH2 0x334C JUMP JUMPDEST DUP5 PUSH2 0x1067 SWAP2 SWAP1 PUSH2 0x36C7 JUMP JUMPDEST PUSH2 0x1071 SWAP2 SWAP1 PUSH2 0x3738 JUMP JUMPDEST PUSH1 0xE DUP2 SWAP1 SSTORE POP PUSH1 0xE SLOAD DUP4 PUSH2 0x1085 SWAP2 SWAP1 PUSH2 0x334C JUMP JUMPDEST PUSH1 0xF DUP2 SWAP1 SSTORE POP TIMESTAMP PUSH1 0x12 DUP2 SWAP1 SSTORE POP DUP1 PUSH1 0x11 DUP2 SWAP1 SSTORE POP POP POP POP JUMP JUMPDEST PUSH1 0x12 SLOAD DUP2 JUMP JUMPDEST PUSH1 0x0 DUP1 PUSH20 0xFFFFFFFFFFFFFFFFFFFFFFFFFFFFFFFFFFFFFFFF AND DUP3 PUSH20 0xFFFFFFFFFFFFFFFFFFFFFFFFFFFFFFFFFFFFFFFF AND SUB PUSH2 0x1117 JUMPI PUSH1 0x0 PUSH1 0x40 MLOAD PUSH32 0x89C62B6400000000000000000000000000000000000000000000000000000000 DUP2 MSTORE PUSH1 0x4 ADD PUSH2 0x110E SWAP2 SWAP1 PUSH2 0x2E19 JUMP JUMPDEST PUSH1 0x40 MLOAD DUP1 SWAP2 SUB SWAP1 REVERT JUMPDEST PUSH1 0x4 PUSH1 0x0 DUP4 PUSH20 0xFFFFFFFFFFFFFFFFFFFFFFFFFFFFFFFFFFFFFFFF AND PUSH20 0xFFFFFFFFFFFFFFFFFFFFFFFFFFFFFFFFFFFFFFFF AND DUP2 MSTORE PUSH1 0x20 ADD SWAP1 DUP2 MSTORE PUSH1 0x20 ADD PUSH1 0x0 KECCAK256 SLOAD SWAP1 POP SWAP2 SWAP1 POP JUMP JUMPDEST PUSH2 0x1166 PUSH2 0x2069 JUMP JUMPDEST PUSH2 0x1170 PUSH1 0x0 PUSH2 0x20F0 JUMP JUMPDEST JUMP JUMPDEST PUSH1 0xB PUSH1 0x0 SWAP1 SLOAD SWAP1 PUSH2 0x100 EXP SWAP1 DIV PUSH20 0xFFFFFFFFFFFFFFFFFFFFFFFFFFFFFFFFFFFFFFFF AND DUP2 JUMP JUMPDEST PUSH1 0x0 DUP1 PUSH1 0x0 DUP1 PUSH1 0x9 PUSH1 0x0 CALLER PUSH20 0xFFFFFFFFFFFFFFFFFFFFFFFFFFFFFFFFFFFFFFFF AND PUSH20 0xFFFFFFFFFFFFFFFFFFFFFFFFFFFFFFFFFFFFFFFF AND DUP2 MSTORE PUSH1 0x20 ADD SWAP1 DUP2 MSTORE PUSH1 0x20 ADD PUSH1 0x0 KECCAK256 SWAP1 POP PUSH1 0x0 PUSH2 0x11EA CALLER PUSH2 0x1F38 JUMP JUMPDEST SWAP1 POP DUP2 PUSH1 0x0 ADD SLOAD SWAP5 POP DUP1 DUP3 PUSH1 0x1 ADD SLOAD PUSH2 0x1203 SWAP2 SWAP1 PUSH2 0x3318 JUMP JUMPDEST SWAP4 POP DUP2 PUSH1 0x2 ADD SLOAD PUSH2 0x1223 TIMESTAMP PUSH1 0x11 SLOAD PUSH1 0x12 SLOAD PUSH2 0x121E SWAP2 SWAP1 PUSH2 0x3318 JUMP JUMPDEST PUSH2 0x21B4 JUMP JUMPDEST PUSH2 0x122D SWAP2 SWAP1 PUSH2 0x334C JUMP JUMPDEST SWAP3 POP POP POP SWAP1 SWAP2 SWAP3 JUMP JUMPDEST PUSH1 0x11 SLOAD DUP2 JUMP JUMPDEST PUSH1 0xD SLOAD DUP2 JUMP JUMPDEST PUSH1 0x0 DUP1 PUSH1 0x0 SWAP1 SLOAD SWAP1 PUSH2 0x100 EXP SWAP1 DIV PUSH20 0xFFFFFFFFFFFFFFFFFFFFFFFFFFFFFFFFFFFFFFFF AND SWAP1 POP SWAP1 JUMP JUMPDEST PUSH1 0x60 PUSH1 0x2 DUP1 SLOAD PUSH2 0x127A SWAP1 PUSH2 0x33AF JUMP JUMPDEST DUP1 PUSH1 0x1F ADD PUSH1 0x20 DUP1 SWAP2 DIV MUL PUSH1 0x20 ADD PUSH1 0x40 MLOAD SWAP1 DUP2 ADD PUSH1 0x40 MSTORE DUP1 SWAP3 SWAP2 SWAP1 DUP2 DUP2 MSTORE PUSH1 0x20 ADD DUP3 DUP1 SLOAD PUSH2 0x12A6 SWAP1 PUSH2 0x33AF JUMP JUMPDEST DUP1 ISZERO PUSH2 0x12F3 JUMPI DUP1 PUSH1 0x1F LT PUSH2 0x12C8 JUMPI PUSH2 0x100 DUP1 DUP4 SLOAD DIV MUL DUP4 MSTORE SWAP2 PUSH1 0x20 ADD SWAP2 PUSH2 0x12F3 JUMP JUMPDEST DUP3 ADD SWAP2 SWAP1 PUSH1 0x0 MSTORE PUSH1 0x20 PUSH1 0x0 KECCAK256 SWAP1 JUMPDEST DUP2 SLOAD DUP2 MSTORE SWAP1 PUSH1 0x1 ADD SWAP1 PUSH1 0x20 ADD DUP1 DUP4 GT PUSH2 0x12D6 JUMPI DUP3 SWAP1 SUB PUSH1 0x1F AND DUP3 ADD SWAP2 JUMPDEST POP POP POP POP POP SWAP1 POP SWAP1 JUMP JUMPDEST PUSH2 0x130F PUSH2 0x1308 PUSH2 0x1CE6 JUMP JUMPDEST DUP4 DUP4 PUSH2 0x21CE JUMP JUMPDEST POP POP JUMP JUMPDEST PUSH1 0x0 PUSH1 0x12 SLOAD GT DUP1 ISZERO PUSH2 0x1333 JUMPI POP PUSH1 0x11 SLOAD PUSH1 0x12 SLOAD PUSH2 0x1330 SWAP2 SWAP1 PUSH2 0x3318 JUMP JUMPDEST TIMESTAMP LT JUMPDEST PUSH2 0x1372 JUMPI PUSH1 0x40 MLOAD PUSH32 0x8C379A000000000000000000000000000000000000000000000000000000000 DUP2 MSTORE PUSH1 0x4 ADD PUSH2 0x1369 SWAP1 PUSH2 0x37B5 JUMP JUMPDEST PUSH1 0x40 MLOAD DUP1 SWAP2 SUB SWAP1 REVERT JUMPDEST PUSH1 0x32 DUP2 LT ISZERO PUSH2 0x13B6 JUMPI PUSH1 0x40 MLOAD PUSH32 0x8C379A000000000000000000000000000000000000000000000000000000000 DUP2 MSTORE PUSH1 0x4 ADD PUSH2 0x13AD SWAP1 PUSH2 0x3821 JUMP JUMPDEST PUSH1 0x40 MLOAD DUP1 SWAP2 SUB SWAP1 REVERT JUMPDEST PUSH1 0xB PUSH1 0x0 SWAP1 SLOAD SWAP1 PUSH2 0x100 EXP SWAP1 DIV PUSH20 0xFFFFFFFFFFFFFFFFFFFFFFFFFFFFFFFFFFFFFFFF AND PUSH20 0xFFFFFFFFFFFFFFFFFFFFFFFFFFFFFFFFFFFFFFFF AND PUSH4 0x23B872DD CALLER ADDRESS DUP5 PUSH1 0x40 MLOAD DUP5 PUSH4 0xFFFFFFFF AND PUSH1 0xE0 SHL DUP2 MSTORE PUSH1 0x4 ADD PUSH2 0x1415 SWAP4 SWAP3 SWAP2 SWAP1 PUSH2 0x3841 JUMP JUMPDEST PUSH1 0x20 PUSH1 0x40 MLOAD DUP1 DUP4 SUB DUP2 PUSH1 0x0 DUP8 GAS CALL ISZERO DUP1 ISZERO PUSH2 0x1434 JUMPI RETURNDATASIZE PUSH1 0x0 DUP1 RETURNDATACOPY RETURNDATASIZE PUSH1 0x0 REVERT JUMPDEST POP POP POP POP PUSH1 0x40 MLOAD RETURNDATASIZE PUSH1 0x1F NOT PUSH1 0x1F DUP3 ADD AND DUP3 ADD DUP1 PUSH1 0x40 MSTORE POP DUP2 ADD SWAP1 PUSH2 0x1458 SWAP2 SWAP1 PUSH2 0x3599 JUMP JUMPDEST PUSH2 0x1497 JUMPI PUSH1 0x40 MLOAD PUSH32 0x8C379A000000000000000000000000000000000000000000000000000000000 DUP2 MSTORE PUSH1 0x4 ADD PUSH2 0x148E SWAP1 PUSH2 0x3612 JUMP JUMPDEST PUSH1 0x40 MLOAD DUP1 SWAP2 SUB SWAP1 REVERT JUMPDEST PUSH1 0x0 PUSH1 0x9 PUSH1 0x0 CALLER PUSH20 0xFFFFFFFFFFFFFFFFFFFFFFFFFFFFFFFFFFFFFFFF AND PUSH20 0xFFFFFFFFFFFFFFFFFFFFFFFFFFFFFFFFFFFFFFFF AND DUP2 MSTORE PUSH1 0x20 ADD SWAP1 DUP2 MSTORE PUSH1 0x20 ADD PUSH1 0x0 KECCAK256 SWAP1 POP PUSH1 0x0 DUP2 PUSH1 0x3 ADD SLOAD GT ISZERO PUSH2 0x1515 JUMPI PUSH1 0x0 PUSH2 0x14F2 CALLER PUSH2 0x1F38 JUMP JUMPDEST SWAP1 POP DUP1 DUP3 PUSH1 0x1 ADD PUSH1 0x0 DUP3 DUP3 SLOAD PUSH2 0x1508 SWAP2 SWAP1 PUSH2 0x3318 JUMP JUMPDEST SWAP3 POP POP DUP2 SWAP1 SSTORE POP POP PUSH2 0x151F JUMP JUMPDEST TIMESTAMP DUP2 PUSH1 0x2 ADD DUP2 SWAP1 SSTORE POP JUMPDEST DUP2 DUP2 PUSH1 0x0 ADD PUSH1 0x0 DUP3 DUP3 SLOAD PUSH2 0x1533 SWAP2 SWAP1 PUSH2 0x3318 JUMP JUMPDEST SWAP3 POP POP DUP2 SWAP1 SSTORE POP PUSH2 0xBB8 DUP2 PUSH1 0x0 ADD SLOAD LT ISZERO DUP1 ISZERO PUSH2 0x1554 JUMPI POP PUSH1 0x0 DUP2 PUSH1 0x4 ADD SLOAD EQ JUMPDEST ISZERO PUSH2 0x1563 JUMPI TIMESTAMP DUP2 PUSH1 0x4 ADD DUP2 SWAP1 SSTORE POP JUMPDEST TIMESTAMP DUP2 PUSH1 0x3 ADD DUP2 SWAP1 SSTORE POP DUP2 PUSH1 0xD PUSH1 0x0 DUP3 DUP3 SLOAD PUSH2 0x157E SWAP2 SWAP1 PUSH2 0x3318 JUMP JUMPDEST SWAP3 POP POP DUP2 SWAP1 SSTORE POP CALLER PUSH20 0xFFFFFFFFFFFFFFFFFFFFFFFFFFFFFFFFFFFFFFFF AND PUSH32 0x9E71BC8EEA02A63969F509818F2DAFB9254532904319F9DBDA79B67BD34A5F3D DUP4 PUSH1 0x40 MLOAD PUSH2 0x15CB SWAP2 SWAP1 PUSH2 0x2CB2 JUMP JUMPDEST PUSH1 0x40 MLOAD DUP1 SWAP2 SUB SWAP1 LOG2 POP POP JUMP JUMPDEST PUSH2 0x15E2 DUP5 DUP5 DUP5 PUSH2 0xB40 JUMP JUMPDEST PUSH2 0x15F6 PUSH2 0x15ED PUSH2 0x1CE6 JUMP JUMPDEST DUP6 DUP6 DUP6 DUP6 PUSH2 0x233D JUMP JUMPDEST POP POP POP POP JUMP JUMPDEST PUSH1 0x0 DUP1 PUSH1 0x9 PUSH1 0x0 CALLER PUSH20 0xFFFFFFFFFFFFFFFFFFFFFFFFFFFFFFFFFFFFFFFF AND PUSH20 0xFFFFFFFFFFFFFFFFFFFFFFFFFFFFFFFFFFFFFFFF AND DUP2 MSTORE PUSH1 0x20 ADD SWAP1 DUP2 MSTORE PUSH1 0x20 ADD PUSH1 0x0 KECCAK256 PUSH1 0x40 MLOAD DUP1 PUSH1 0xC0 ADD PUSH1 0x40 MSTORE SWAP1 DUP2 PUSH1 0x0 DUP3 ADD SLOAD DUP2 MSTORE PUSH1 0x20 ADD PUSH1 0x1 DUP3 ADD SLOAD DUP2 MSTORE PUSH1 0x20 ADD PUSH1 0x2 DUP3 ADD SLOAD DUP2 MSTORE PUSH1 0x20 ADD PUSH1 0x3 DUP3 ADD SLOAD DUP2 MSTORE PUSH1 0x20 ADD PUSH1 0x4 DUP3 ADD SLOAD DUP2 MSTORE PUSH1 0x20 ADD PUSH1 0x5 DUP3 ADD PUSH1 0x0 SWAP1 SLOAD SWAP1 PUSH2 0x100 EXP SWAP1 DIV PUSH1 0xFF AND ISZERO ISZERO ISZERO ISZERO DUP2 MSTORE POP POP SWAP1 POP PUSH1 0x0 PUSH1 0x14 SLOAD PUSH1 0x11 SLOAD PUSH1 0x12 SLOAD PUSH2 0x16AD SWAP2 SWAP1 PUSH2 0x3318 JUMP JUMPDEST PUSH2 0x16B7 SWAP2 SWAP1 PUSH2 0x3318 JUMP JUMPDEST SWAP1 POP DUP1 TIMESTAMP GT ISZERO PUSH2 0x16CC JUMPI PUSH1 0x0 SWAP3 POP POP POP PUSH2 0x1734 JUMP JUMPDEST DUP2 PUSH1 0xA0 ADD MLOAD ISZERO DUP1 ISZERO PUSH2 0x16E2 JUMPI POP PUSH1 0x0 DUP3 PUSH1 0x80 ADD MLOAD GT JUMPDEST DUP1 ISZERO PUSH2 0x172F JUMPI POP PUSH1 0x64 PUSH1 0x3C PUSH1 0x11 SLOAD PUSH2 0x16FA SWAP2 SWAP1 PUSH2 0x36C7 JUMP JUMPDEST PUSH2 0x1704 SWAP2 SWAP1 PUSH2 0x3738 JUMP JUMPDEST DUP3 PUSH1 0x80 ADD MLOAD PUSH2 0x1722 TIMESTAMP PUSH1 0x11 SLOAD PUSH1 0x12 SLOAD PUSH2 0x171D SWAP2 SWAP1 PUSH2 0x3318 JUMP JUMPDEST PUSH2 0x21B4 JUMP JUMPDEST PUSH2 0x172C SWAP2 SWAP1 PUSH2 0x334C JUMP JUMPDEST LT ISZERO JUMPDEST SWAP3 POP POP POP JUMPDEST SWAP1 JUMP JUMPDEST PUSH1 0x60 PUSH2 0x1742 DUP3 PUSH2 0x1C21 JUMP JUMPDEST POP PUSH1 0x0 PUSH2 0x174D PUSH2 0x24EE JUMP JUMPDEST SWAP1 POP PUSH1 0x0 DUP2 MLOAD GT PUSH2 0x176D JUMPI PUSH1 0x40 MLOAD DUP1 PUSH1 0x20 ADD PUSH1 0x40 MSTORE DUP1 PUSH1 0x0 DUP2 MSTORE POP PUSH2 0x1798 JUMP JUMPDEST DUP1 PUSH2 0x1777 DUP5 PUSH2 0x2505 JUMP JUMPDEST PUSH1 0x40 MLOAD PUSH1 0x20 ADD PUSH2 0x1788 SWAP3 SWAP2 SWAP1 PUSH2 0x38B4 JUMP JUMPDEST PUSH1 0x40 MLOAD PUSH1 0x20 DUP2 DUP4 SUB SUB DUP2 MSTORE SWAP1 PUSH1 0x40 MSTORE JUMPDEST SWAP2 POP POP SWAP2 SWAP1 POP JUMP JUMPDEST PUSH1 0xF SLOAD DUP2 JUMP JUMPDEST PUSH1 0x0 PUSH1 0x6 PUSH1 0x0 DUP5 PUSH20 0xFFFFFFFFFFFFFFFFFFFFFFFFFFFFFFFFFFFFFFFF AND PUSH20 0xFFFFFFFFFFFFFFFFFFFFFFFFFFFFFFFFFFFFFFFF AND DUP2 MSTORE PUSH1 0x20 ADD SWAP1 DUP2 MSTORE PUSH1 0x20 ADD PUSH1 0x0 KECCAK256 PUSH1 0x0 DUP4 PUSH20 0xFFFFFFFFFFFFFFFFFFFFFFFFFFFFFFFFFFFFFFFF AND PUSH20 0xFFFFFFFFFFFFFFFFFFFFFFFFFFFFFFFFFFFFFFFF AND DUP2 MSTORE PUSH1 0x20 ADD SWAP1 DUP2 MSTORE PUSH1 0x20 ADD PUSH1 0x0 KECCAK256 PUSH1 0x0 SWAP1 SLOAD SWAP1 PUSH2 0x100 EXP SWAP1 DIV PUSH1 0xFF AND SWAP1 POP SWAP3 SWAP2 POP POP JUMP JUMPDEST PUSH1 0x14 SLOAD DUP2 JUMP JUMPDEST PUSH1 0x0 DUP1 PUSH1 0x12 SLOAD GT DUP1 ISZERO PUSH2 0x1862 JUMPI POP PUSH1 0x11 SLOAD PUSH1 0x12 SLOAD PUSH2 0x185E SWAP2 SWAP1 PUSH2 0x3318 JUMP JUMPDEST TIMESTAMP LT ISZERO JUMPDEST PUSH2 0x18A1 JUMPI PUSH1 0x40 MLOAD PUSH32 0x8C379A000000000000000000000000000000000000000000000000000000000 DUP2 MSTORE PUSH1 0x4 ADD PUSH2 0x1898 SWAP1 PUSH2 0x3924 JUMP JUMPDEST PUSH1 0x40 MLOAD DUP1 SWAP2 SUB SWAP1 REVERT JUMPDEST PUSH1 0x0 PUSH1 0x7 PUSH1 0x0 CALLER PUSH20 0xFFFFFFFFFFFFFFFFFFFFFFFFFFFFFFFFFFFFFFFF AND PUSH20 0xFFFFFFFFFFFFFFFFFFFFFFFFFFFFFFFFFFFFFFFF AND DUP2 MSTORE PUSH1 0x20 ADD SWAP1 DUP2 MSTORE PUSH1 0x20 ADD PUSH1 0x0 KECCAK256 SLOAD SUB PUSH2 0x18F1 JUMPI PUSH1 0x0 SWAP1 POP PUSH2 0x1914 JUMP JUMPDEST PUSH5 0x2540BE400 PUSH1 0x13 SLOAD PUSH1 0xF SLOAD PUSH2 0x1907 SWAP2 SWAP1 PUSH2 0x3738 JUMP JUMPDEST PUSH2 0x1911 SWAP2 SWAP1 PUSH2 0x36C7 JUMP JUMPDEST SWAP1 POP JUMPDEST SWAP1 JUMP JUMPDEST PUSH2 0x191F PUSH2 0x2069 JUMP JUMPDEST PUSH1 0x0 PUSH20 0xFFFFFFFFFFFFFFFFFFFFFFFFFFFFFFFFFFFFFFFF AND DUP2 PUSH20 0xFFFFFFFFFFFFFFFFFFFFFFFFFFFFFFFFFFFFFFFF AND SUB PUSH2 0x1991 JUMPI PUSH1 0x0 PUSH1 0x40 MLOAD PUSH32 0x1E4FBDF700000000000000000000000000000000000000000000000000000000 DUP2 MSTORE PUSH1 0x4 ADD PUSH2 0x1988 SWAP2 SWAP1 PUSH2 0x2E19 JUMP JUMPDEST PUSH1 0x40 MLOAD DUP1 SWAP2 SUB SWAP1 REVERT JUMPDEST PUSH2 0x199A DUP2 PUSH2 0x20F0 JUMP JUMPDEST POP JUMP JUMPDEST PUSH1 0xC PUSH1 0x0 SWAP1 SLOAD SWAP1 PUSH2 0x100 EXP SWAP1 DIV PUSH20 0xFFFFFFFFFFFFFFFFFFFFFFFFFFFFFFFFFFFFFFFF AND DUP2 JUMP JUMPDEST PUSH1 0x0 DUP1 PUSH1 0x12 SLOAD GT DUP1 ISZERO PUSH2 0x19E5 JUMPI POP PUSH1 0x11 SLOAD PUSH1 0x12 SLOAD PUSH2 0x19E1 SWAP2 SWAP1 PUSH2 0x3318 JUMP JUMPDEST TIMESTAMP LT ISZERO JUMPDEST PUSH2 0x1A24 JUMPI PUSH1 0x40 MLOAD PUSH32 0x8C379A000000000000000000000000000000000000000000000000000000000 DUP2 MSTORE PUSH1 0x4 ADD PUSH2 0x1A1B SWAP1 PUSH2 0x3924 JUMP JUMPDEST PUSH1 0x40 MLOAD DUP1 SWAP2 SUB SWAP1 REVERT JUMPDEST PUSH1 0x0 PUSH2 0x1A2E PUSH2 0x1840 JUMP JUMPDEST SWAP1 POP PUSH1 0x0 DUP2 GT PUSH2 0x1A73 JUMPI PUSH1 0x40 MLOAD PUSH32 0x8C379A000000000000000000000000000000000000000000000000000000000 DUP2 MSTORE PUSH1 0x4 ADD PUSH2 0x1A6A SWAP1 PUSH2 0x3990 JUMP JUMPDEST PUSH1 0x40 MLOAD DUP1 SWAP2 SUB SWAP1 REVERT JUMPDEST PUSH1 0x14 SLOAD PUSH1 0x11 SLOAD PUSH1 0x12 SLOAD PUSH2 0x1A86 SWAP2 SWAP1 PUSH2 0x3318 JUMP JUMPDEST PUSH2 0x1A90 SWAP2 SWAP1 PUSH2 0x3318 JUMP JUMPDEST TIMESTAMP GT PUSH2 0x1AD1 JUMPI PUSH1 0x40 MLOAD PUSH32 0x8C379A000000000000000000000000000000000000000000000000000000000 DUP2 MSTORE PUSH1 0x4 ADD PUSH2 0x1AC8 SWAP1 PUSH2 0x39FC JUMP JUMPDEST PUSH1 0x40 MLOAD DUP1 SWAP2 SUB SWAP1 REVERT JUMPDEST PUSH1 0xC PUSH1 0x0 SWAP1 SLOAD SWAP1 PUSH2 0x100 EXP SWAP1 DIV PUSH20 0xFFFFFFFFFFFFFFFFFFFFFFFFFFFFFFFFFFFFFFFF AND PUSH20 0xFFFFFFFFFFFFFFFFFFFFFFFFFFFFFFFFFFFFFFFF AND PUSH4 0xA9059CBB CALLER DUP4 PUSH1 0x40 MLOAD DUP4 PUSH4 0xFFFFFFFF AND PUSH1 0xE0 SHL DUP2 MSTORE PUSH1 0x4 ADD PUSH2 0x1B2E SWAP3 SWAP2 SWAP1 PUSH2 0x355B JUMP JUMPDEST PUSH1 0x20 PUSH1 0x40 MLOAD DUP1 DUP4 SUB DUP2 PUSH1 0x0 DUP8 GAS CALL ISZERO DUP1 ISZERO PUSH2 0x1B4D JUMPI RETURNDATASIZE PUSH1 0x0 DUP1 RETURNDATACOPY RETURNDATASIZE PUSH1 0x0 REVERT JUMPDEST POP POP POP POP PUSH1 0x40 MLOAD RETURNDATASIZE PUSH1 0x1F NOT PUSH1 0x1F DUP3 ADD AND DUP3 ADD DUP1 PUSH1 0x40 MSTORE POP DUP2 ADD SWAP1 PUSH2 0x1B71 SWAP2 SWAP1 PUSH2 0x3599 JUMP JUMPDEST PUSH2 0x1BB0 JUMPI PUSH1 0x40 MLOAD PUSH32 0x8C379A000000000000000000000000000000000000000000000000000000000 DUP2 MSTORE PUSH1 0x4 ADD PUSH2 0x1BA7 SWAP1 PUSH2 0x3A68 JUMP JUMPDEST PUSH1 0x40 MLOAD DUP1 SWAP2 SUB SWAP1 REVERT JUMPDEST DUP1 SWAP2 POP POP SWAP1 JUMP JUMPDEST PUSH1 0x0 PUSH32 0x1FFC9A700000000000000000000000000000000000000000000000000000000 PUSH28 0xFFFFFFFFFFFFFFFFFFFFFFFFFFFFFFFFFFFFFFFFFFFFFFFFFFFFFFFF NOT AND DUP3 PUSH28 0xFFFFFFFFFFFFFFFFFFFFFFFFFFFFFFFFFFFFFFFFFFFFFFFFFFFFFFFF NOT AND EQ SWAP1 POP SWAP2 SWAP1 POP JUMP JUMPDEST PUSH1 0x0 DUP1 PUSH2 0x1C2D DUP4 PUSH2 0x25D3 JUMP JUMPDEST SWAP1 POP PUSH1 0x0 PUSH20 0xFFFFFFFFFFFFFFFFFFFFFFFFFFFFFFFFFFFFFFFF AND DUP2 PUSH20 0xFFFFFFFFFFFFFFFFFFFFFFFFFFFFFFFFFFFFFFFF AND SUB PUSH2 0x1CA0 JUMPI DUP3 PUSH1 0x40 MLOAD PUSH32 0x7E27328900000000000000000000000000000000000000000000000000000000 DUP2 MSTORE PUSH1 0x4 ADD PUSH2 0x1C97 SWAP2 SWAP1 PUSH2 0x2CB2 JUMP JUMPDEST PUSH1 0x40 MLOAD DUP1 SWAP2 SUB SWAP1 REVERT JUMPDEST DUP1 SWAP2 POP POP SWAP2 SWAP1 POP JUMP JUMPDEST PUSH1 0x0 PUSH1 0x5 PUSH1 0x0 DUP4 DUP2 MSTORE PUSH1 0x20 ADD SWAP1 DUP2 MSTORE PUSH1 0x20 ADD PUSH1 0x0 KECCAK256 PUSH1 0x0 SWAP1 SLOAD SWAP1 PUSH2 0x100 EXP SWAP1 DIV PUSH20 0xFFFFFFFFFFFFFFFFFFFFFFFFFFFFFFFFFFFFFFFF AND SWAP1 POP SWAP2 SWAP1 POP JUMP JUMPDEST PUSH1 0x0 CALLER SWAP1 POP SWAP1 JUMP JUMPDEST PUSH2 0x1CFB DUP4 DUP4 DUP4 PUSH1 0x1 PUSH2 0x2610 JUMP JUMPDEST POP POP POP JUMP JUMPDEST PUSH2 0x1D1A DUP3 DUP3 PUSH1 0x40 MLOAD DUP1 PUSH1 0x20 ADD PUSH1 0x40 MSTORE DUP1 PUSH1 0x0 DUP2 MSTORE POP PUSH2 0x27D5 JUMP JUMPDEST POP POP JUMP JUMPDEST PUSH1 0x0 DUP1 PUSH2 0x1D2A DUP5 PUSH2 0x25D3 JUMP JUMPDEST SWAP1 POP PUSH1 0x0 PUSH20 0xFFFFFFFFFFFFFFFFFFFFFFFFFFFFFFFFFFFFFFFF AND DUP4 PUSH20 0xFFFFFFFFFFFFFFFFFFFFFFFFFFFFFFFFFFFFFFFF AND EQ PUSH2 0x1D6C JUMPI PUSH2 0x1D6B DUP2 DUP5 DUP7 PUSH2 0x27F9 JUMP JUMPDEST JUMPDEST PUSH1 0x0 PUSH20 0xFFFFFFFFFFFFFFFFFFFFFFFFFFFFFFFFFFFFFFFF AND DUP2 PUSH20 0xFFFFFFFFFFFFFFFFFFFFFFFFFFFFFFFFFFFFFFFF AND EQ PUSH2 0x1DFD JUMPI PUSH2 0x1DAE PUSH1 0x0 DUP6 PUSH1 0x0 DUP1 PUSH2 0x2610 JUMP JUMPDEST PUSH1 0x1 PUSH1 0x4 PUSH1 0x0 DUP4 PUSH20 0xFFFFFFFFFFFFFFFFFFFFFFFFFFFFFFFFFFFFFFFF AND PUSH20 0xFFFFFFFFFFFFFFFFFFFFFFFFFFFFFFFFFFFFFFFF AND DUP2 MSTORE PUSH1 0x20 ADD SWAP1 DUP2 MSTORE PUSH1 0x20 ADD PUSH1 0x0 KECCAK256 PUSH1 0x0 DUP3 DUP3 SLOAD SUB SWAP3 POP POP DUP2 SWAP1 SSTORE POP JUMPDEST PUSH1 0x0 PUSH20 0xFFFFFFFFFFFFFFFFFFFFFFFFFFFFFFFFFFFFFFFF AND DUP6 PUSH20 0xFFFFFFFFFFFFFFFFFFFFFFFFFFFFFFFFFFFFFFFF AND EQ PUSH2 0x1E80 JUMPI PUSH1 0x1 PUSH1 0x4 PUSH1 0x0 DUP8 PUSH20 0xFFFFFFFFFFFFFFFFFFFFFFFFFFFFFFFFFFFFFFFF AND PUSH20 0xFFFFFFFFFFFFFFFFFFFFFFFFFFFFFFFFFFFFFFFF AND DUP2 MSTORE PUSH1 0x20 ADD SWAP1 DUP2 MSTORE PUSH1 0x20 ADD PUSH1 0x0 KECCAK256 PUSH1 0x0 DUP3 DUP3 SLOAD ADD SWAP3 POP POP DUP2 SWAP1 SSTORE POP JUMPDEST DUP5 PUSH1 0x3 PUSH1 0x0 DUP7 DUP2 MSTORE PUSH1 0x20 ADD SWAP1 DUP2 MSTORE PUSH1 0x20 ADD PUSH1 0x0 KECCAK256 PUSH1 0x0 PUSH2 0x100 EXP DUP2 SLOAD DUP2 PUSH20 0xFFFFFFFFFFFFFFFFFFFFFFFFFFFFFFFFFFFFFFFF MUL NOT AND SWAP1 DUP4 PUSH20 0xFFFFFFFFFFFFFFFFFFFFFFFFFFFFFFFFFFFFFFFF AND MUL OR SWAP1 SSTORE POP DUP4 DUP6 PUSH20 0xFFFFFFFFFFFFFFFFFFFFFFFFFFFFFFFFFFFFFFFF AND DUP3 PUSH20 0xFFFFFFFFFFFFFFFFFFFFFFFFFFFFFFFFFFFFFFFF AND PUSH32 0xDDF252AD1BE2C89B69C2B068FC378DAA952BA7F163C4A11628F55A4DF523B3EF PUSH1 0x40 MLOAD PUSH1 0x40 MLOAD DUP1 SWAP2 SUB SWAP1 LOG4 DUP1 SWAP2 POP POP SWAP4 SWAP3 POP POP POP JUMP JUMPDEST PUSH1 0x0 DUP1 PUSH1 0x9 PUSH1 0x0 DUP5 PUSH20 0xFFFFFFFFFFFFFFFFFFFFFFFFFFFFFFFFFFFFFFFF AND PUSH20 0xFFFFFFFFFFFFFFFFFFFFFFFFFFFFFFFFFFFFFFFF AND DUP2 MSTORE PUSH1 0x20 ADD SWAP1 DUP2 MSTORE PUSH1 0x20 ADD PUSH1 0x0 KECCAK256 SWAP1 POP PUSH1 0x0 DUP2 PUSH1 0x0 ADD SLOAD EQ DUP1 PUSH2 0x1F91 JUMPI POP PUSH1 0x0 PUSH1 0x12 SLOAD EQ JUMPDEST ISZERO PUSH2 0x1FA0 JUMPI PUSH1 0x0 SWAP2 POP POP PUSH2 0x2064 JUMP JUMPDEST PUSH1 0x0 DUP2 PUSH1 0x3 ADD SLOAD PUSH2 0x1FC0 TIMESTAMP PUSH1 0x11 SLOAD PUSH1 0x12 SLOAD PUSH2 0x1FBB SWAP2 SWAP1 PUSH2 0x3318 JUMP JUMPDEST PUSH2 0x21B4 JUMP JUMPDEST PUSH2 0x1FCA SWAP2 SWAP1 PUSH2 0x334C JUMP JUMPDEST SWAP1 POP PUSH1 0x0 PUSH1 0xD SLOAD PUSH8 0xDE0B6B3A7640000 DUP5 PUSH1 0x0 ADD SLOAD PUSH2 0x1FE9 SWAP2 SWAP1 PUSH2 0x36C7 JUMP JUMPDEST PUSH2 0x1FF3 SWAP2 SWAP1 PUSH2 0x3738 JUMP JUMPDEST SWAP1 POP PUSH1 0x0 PUSH1 0x11 SLOAD PUSH8 0xDE0B6B3A7640000 PUSH2 0x200D SWAP2 SWAP1 PUSH2 0x36C7 JUMP JUMPDEST DUP4 PUSH1 0xE SLOAD DUP5 PUSH2 0x201C SWAP2 SWAP1 PUSH2 0x36C7 JUMP JUMPDEST PUSH2 0x2026 SWAP2 SWAP1 PUSH2 0x36C7 JUMP JUMPDEST PUSH2 0x2030 SWAP2 SWAP1 PUSH2 0x3738 JUMP JUMPDEST SWAP1 POP PUSH1 0xE SLOAD DUP2 PUSH1 0x10 SLOAD PUSH2 0x2043 SWAP2 SWAP1 PUSH2 0x3318 JUMP JUMPDEST GT ISZERO PUSH2 0x205C JUMPI PUSH1 0x10 SLOAD PUSH1 0xE SLOAD PUSH2 0x2059 SWAP2 SWAP1 PUSH2 0x334C JUMP JUMPDEST SWAP1 POP JUMPDEST DUP1 SWAP5 POP POP POP POP POP JUMPDEST SWAP2 SWAP1 POP JUMP JUMPDEST PUSH2 0x2071 PUSH2 0x1CE6 JUMP JUMPDEST PUSH20 0xFFFFFFFFFFFFFFFFFFFFFFFFFFFFFFFFFFFFFFFF AND PUSH2 0x208F PUSH2 0x1242 JUMP JUMPDEST PUSH20 0xFFFFFFFFFFFFFFFFFFFFFFFFFFFFFFFFFFFFFFFF AND EQ PUSH2 0x20EE JUMPI PUSH2 0x20B2 PUSH2 0x1CE6 JUMP JUMPDEST PUSH1 0x40 MLOAD PUSH32 0x118CDAA700000000000000000000000000000000000000000000000000000000 DUP2 MSTORE PUSH1 0x4 ADD PUSH2 0x20E5 SWAP2 SWAP1 PUSH2 0x2E19 JUMP JUMPDEST PUSH1 0x40 MLOAD DUP1 SWAP2 SUB SWAP1 REVERT JUMPDEST JUMP JUMPDEST PUSH1 0x0 DUP1 PUSH1 0x0 SWAP1 SLOAD SWAP1 PUSH2 0x100 EXP SWAP1 DIV PUSH20 0xFFFFFFFFFFFFFFFFFFFFFFFFFFFFFFFFFFFFFFFF AND SWAP1 POP DUP2 PUSH1 0x0 DUP1 PUSH2 0x100 EXP DUP2 SLOAD DUP2 PUSH20 0xFFFFFFFFFFFFFFFFFFFFFFFFFFFFFFFFFFFFFFFF MUL NOT AND SWAP1 DUP4 PUSH20 0xFFFFFFFFFFFFFFFFFFFFFFFFFFFFFFFFFFFFFFFF AND MUL OR SWAP1 SSTORE POP DUP2 PUSH20 0xFFFFFFFFFFFFFFFFFFFFFFFFFFFFFFFFFFFFFFFF AND DUP2 PUSH20 0xFFFFFFFFFFFFFFFFFFFFFFFFFFFFFFFFFFFFFFFF AND PUSH32 0x8BE0079C531659141344CD1FD0A4F28419497F9722A3DAAFE3B4186F6B6457E0 PUSH1 0x40 MLOAD PUSH1 0x40 MLOAD DUP1 SWAP2 SUB SWAP1 LOG3 POP POP JUMP JUMPDEST PUSH1 0x0 DUP2 DUP4 LT ISZERO PUSH2 0x21C4 JUMPI DUP3 PUSH2 0x21C6 JUMP JUMPDEST DUP2 JUMPDEST SWAP1 POP SWAP3 SWAP2 POP POP JUMP JUMPDEST PUSH1 0x0 PUSH20 0xFFFFFFFFFFFFFFFFFFFFFFFFFFFFFFFFFFFFFFFF AND DUP3 PUSH20 0xFFFFFFFFFFFFFFFFFFFFFFFFFFFFFFFFFFFFFFFF AND SUB PUSH2 0x223F JUMPI DUP2 PUSH1 0x40 MLOAD PUSH32 0x5B08BA1800000000000000000000000000000000000000000000000000000000 DUP2 MSTORE PUSH1 0x4 ADD PUSH2 0x2236 SWAP2 SWAP1 PUSH2 0x2E19 JUMP JUMPDEST PUSH1 0x40 MLOAD DUP1 SWAP2 SUB SWAP1 REVERT JUMPDEST DUP1 PUSH1 0x6 PUSH1 0x0 DUP6 PUSH20 0xFFFFFFFFFFFFFFFFFFFFFFFFFFFFFFFFFFFFFFFF AND PUSH20 0xFFFFFFFFFFFFFFFFFFFFFFFFFFFFFFFFFFFFFFFF AND DUP2 MSTORE PUSH1 0x20 ADD SWAP1 DUP2 MSTORE PUSH1 0x20 ADD PUSH1 0x0 KECCAK256 PUSH1 0x0 DUP5 PUSH20 0xFFFFFFFFFFFFFFFFFFFFFFFFFFFFFFFFFFFFFFFF AND PUSH20 0xFFFFFFFFFFFFFFFFFFFFFFFFFFFFFFFFFFFFFFFF AND DUP2 MSTORE PUSH1 0x20 ADD SWAP1 DUP2 MSTORE PUSH1 0x20 ADD PUSH1 0x0 KECCAK256 PUSH1 0x0 PUSH2 0x100 EXP DUP2 SLOAD DUP2 PUSH1 0xFF MUL NOT AND SWAP1 DUP4 ISZERO ISZERO MUL OR SWAP1 SSTORE POP DUP2 PUSH20 0xFFFFFFFFFFFFFFFFFFFFFFFFFFFFFFFFFFFFFFFF AND DUP4 PUSH20 0xFFFFFFFFFFFFFFFFFFFFFFFFFFFFFFFFFFFFFFFF AND PUSH32 0x17307EAB39AB6107E8899845AD3D59BD9653F200F220920489CA2B5937696C31 DUP4 PUSH1 0x40 MLOAD PUSH2 0x2330 SWAP2 SWAP1 PUSH2 0x2C7E JUMP JUMPDEST PUSH1 0x40 MLOAD DUP1 SWAP2 SUB SWAP1 LOG3 POP POP POP JUMP JUMPDEST PUSH1 0x0 DUP4 PUSH20 0xFFFFFFFFFFFFFFFFFFFFFFFFFFFFFFFFFFFFFFFF AND EXTCODESIZE GT ISZERO PUSH2 0x24E7 JUMPI DUP3 PUSH20 0xFFFFFFFFFFFFFFFFFFFFFFFFFFFFFFFFFFFFFFFF AND PUSH4 0x150B7A02 DUP7 DUP7 DUP6 DUP6 PUSH1 0x40 MLOAD DUP6 PUSH4 0xFFFFFFFF AND PUSH1 0xE0 SHL DUP2 MSTORE PUSH1 0x4 ADD PUSH2 0x239C SWAP5 SWAP4 SWAP3 SWAP2 SWAP1 PUSH2 0x3ADD JUMP JUMPDEST PUSH1 0x20 PUSH1 0x40 MLOAD DUP1 DUP4 SUB DUP2 PUSH1 0x0 DUP8 GAS CALL SWAP3 POP POP POP DUP1 ISZERO PUSH2 0x23D8 JUMPI POP PUSH1 0x40 MLOAD RETURNDATASIZE PUSH1 0x1F NOT PUSH1 0x1F DUP3 ADD AND DUP3 ADD DUP1 PUSH1 0x40 MSTORE POP DUP2 ADD SWAP1 PUSH2 0x23D5 SWAP2 SWAP1 PUSH2 0x3B3E JUMP JUMPDEST PUSH1 0x1 JUMPDEST PUSH2 0x245C JUMPI RETURNDATASIZE DUP1 PUSH1 0x0 DUP2 EQ PUSH2 0x2408 JUMPI PUSH1 0x40 MLOAD SWAP2 POP PUSH1 0x1F NOT PUSH1 0x3F RETURNDATASIZE ADD AND DUP3 ADD PUSH1 0x40 MSTORE RETURNDATASIZE DUP3 MSTORE RETURNDATASIZE PUSH1 0x0 PUSH1 0x20 DUP5 ADD RETURNDATACOPY PUSH2 0x240D JUMP JUMPDEST PUSH1 0x60 SWAP2 POP JUMPDEST POP PUSH1 0x0 DUP2 MLOAD SUB PUSH2 0x2454 JUMPI DUP4 PUSH1 0x40 MLOAD PUSH32 0x64A0AE9200000000000000000000000000000000000000000000000000000000 DUP2 MSTORE PUSH1 0x4 ADD PUSH2 0x244B SWAP2 SWAP1 PUSH2 0x2E19 JUMP JUMPDEST PUSH1 0x40 MLOAD DUP1 SWAP2 SUB SWAP1 REVERT JUMPDEST DUP1 MLOAD DUP2 PUSH1 0x20 ADD REVERT JUMPDEST PUSH4 0x150B7A02 PUSH1 0xE0 SHL PUSH28 0xFFFFFFFFFFFFFFFFFFFFFFFFFFFFFFFFFFFFFFFFFFFFFFFFFFFFFFFF NOT AND DUP2 PUSH28 0xFFFFFFFFFFFFFFFFFFFFFFFFFFFFFFFFFFFFFFFFFFFFFFFFFFFFFFFF NOT AND EQ PUSH2 0x24E5 JUMPI DUP4 PUSH1 0x40 MLOAD PUSH32 0x64A0AE9200000000000000000000000000000000000000000000000000000000 DUP2 MSTORE PUSH1 0x4 ADD PUSH2 0x24DC SWAP2 SWAP1 PUSH2 0x2E19 JUMP JUMPDEST PUSH1 0x40 MLOAD DUP1 SWAP2 SUB SWAP1 REVERT JUMPDEST POP JUMPDEST POP POP POP POP POP JUMP JUMPDEST PUSH1 0x60 PUSH1 0x40 MLOAD DUP1 PUSH1 0x20 ADD PUSH1 0x40 MSTORE DUP1 PUSH1 0x0 DUP2 MSTORE POP SWAP1 POP SWAP1 JUMP JUMPDEST PUSH1 0x60 PUSH1 0x0 PUSH1 0x1 PUSH2 0x2514 DUP5 PUSH2 0x28BD JUMP JUMPDEST ADD SWAP1 POP PUSH1 0x0 DUP2 PUSH8 0xFFFFFFFFFFFFFFFF DUP2 GT ISZERO PUSH2 0x2533 JUMPI PUSH2 0x2532 PUSH2 0x30FB JUMP JUMPDEST JUMPDEST PUSH1 0x40 MLOAD SWAP1 DUP1 DUP3 MSTORE DUP1 PUSH1 0x1F ADD PUSH1 0x1F NOT AND PUSH1 0x20 ADD DUP3 ADD PUSH1 0x40 MSTORE DUP1 ISZERO PUSH2 0x2565 JUMPI DUP2 PUSH1 0x20 ADD PUSH1 0x1 DUP3 MUL DUP1 CALLDATASIZE DUP4 CALLDATACOPY DUP1 DUP3 ADD SWAP2 POP POP SWAP1 POP JUMPDEST POP SWAP1 POP PUSH1 0x0 DUP3 PUSH1 0x20 ADD DUP3 ADD SWAP1 POP JUMPDEST PUSH1 0x1 ISZERO PUSH2 0x25C8 JUMPI DUP1 DUP1 PUSH1 0x1 SWAP1 SUB SWAP2 POP POP PUSH32 0x3031323334353637383961626364656600000000000000000000000000000000 PUSH1 0xA DUP7 MOD BYTE DUP2 MSTORE8 PUSH1 0xA DUP6 DUP2 PUSH2 0x25BC JUMPI PUSH2 0x25BB PUSH2 0x3709 JUMP JUMPDEST JUMPDEST DIV SWAP5 POP PUSH1 0x0 DUP6 SUB PUSH2 0x2573 JUMPI JUMPDEST DUP2 SWAP4 POP POP POP POP SWAP2 SWAP1 POP JUMP JUMPDEST PUSH1 0x0 PUSH1 0x3 PUSH1 0x0 DUP4 DUP2 MSTORE PUSH1 0x20 ADD SWAP1 DUP2 MSTORE PUSH1 0x20 ADD PUSH1 0x0 KECCAK256 PUSH1 0x0 SWAP1 SLOAD SWAP1 PUSH2 0x100 EXP SWAP1 DIV PUSH20 0xFFFFFFFFFFFFFFFFFFFFFFFFFFFFFFFFFFFFFFFF AND SWAP1 POP SWAP2 SWAP1 POP JUMP JUMPDEST DUP1 DUP1 PUSH2 0x2649 JUMPI POP PUSH1 0x0 PUSH20 0xFFFFFFFFFFFFFFFFFFFFFFFFFFFFFFFFFFFFFFFF AND DUP3 PUSH20 0xFFFFFFFFFFFFFFFFFFFFFFFFFFFFFFFFFFFFFFFF AND EQ ISZERO JUMPDEST ISZERO PUSH2 0x277D JUMPI PUSH1 0x0 PUSH2 0x2659 DUP5 PUSH2 0x1C21 JUMP JUMPDEST SWAP1 POP PUSH1 0x0 PUSH20 0xFFFFFFFFFFFFFFFFFFFFFFFFFFFFFFFFFFFFFFFF AND DUP4 PUSH20 0xFFFFFFFFFFFFFFFFFFFFFFFFFFFFFFFFFFFFFFFF AND EQ ISZERO DUP1 ISZERO PUSH2 0x26C4 JUMPI POP DUP3 PUSH20 0xFFFFFFFFFFFFFFFFFFFFFFFFFFFFFFFFFFFFFFFF AND DUP2 PUSH20 0xFFFFFFFFFFFFFFFFFFFFFFFFFFFFFFFFFFFFFFFF AND EQ ISZERO JUMPDEST DUP1 ISZERO PUSH2 0x26D7 JUMPI POP PUSH2 0x26D5 DUP2 DUP5 PUSH2 0x17A6 JUMP JUMPDEST ISZERO JUMPDEST ISZERO PUSH2 0x2719 JUMPI DUP3 PUSH1 0x40 MLOAD PUSH32 0xA9FBF51F00000000000000000000000000000000000000000000000000000000 DUP2 MSTORE PUSH1 0x4 ADD PUSH2 0x2710 SWAP2 SWAP1 PUSH2 0x2E19 JUMP JUMPDEST PUSH1 0x40 MLOAD DUP1 SWAP2 SUB SWAP1 REVERT JUMPDEST DUP2 ISZERO PUSH2 0x277B JUMPI DUP4 DUP6 PUSH20 0xFFFFFFFFFFFFFFFFFFFFFFFFFFFFFFFFFFFFFFFF AND DUP3 PUSH20 0xFFFFFFFFFFFFFFFFFFFFFFFFFFFFFFFFFFFFFFFF AND PUSH32 0x8C5BE1E5EBEC7D5BD14F71427D1E84F3DD0314C0F7B2291E5B200AC8C7C3B925 PUSH1 0x40 MLOAD PUSH1 0x40 MLOAD DUP1 SWAP2 SUB SWAP1 LOG4 JUMPDEST POP JUMPDEST DUP4 PUSH1 0x5 PUSH1 0x0 DUP6 DUP2 MSTORE PUSH1 0x20 ADD SWAP1 DUP2 MSTORE PUSH1 0x20 ADD PUSH1 0x0 KECCAK256 PUSH1 0x0 PUSH2 0x100 EXP DUP2 SLOAD DUP2 PUSH20 0xFFFFFFFFFFFFFFFFFFFFFFFFFFFFFFFFFFFFFFFF MUL NOT AND SWAP1 DUP4 PUSH20 0xFFFFFFFFFFFFFFFFFFFFFFFFFFFFFFFFFFFFFFFF AND MUL OR SWAP1 SSTORE POP POP POP POP POP JUMP JUMPDEST PUSH2 0x27DF DUP4 DUP4 PUSH2 0x2A10 JUMP JUMPDEST PUSH2 0x27F4 PUSH2 0x27EA PUSH2 0x1CE6 JUMP JUMPDEST PUSH1 0x0 DUP6 DUP6 DUP6 PUSH2 0x233D JUMP JUMPDEST POP POP POP JUMP JUMPDEST PUSH2 0x2804 DUP4 DUP4 DUP4 PUSH2 0x2B09 JUMP JUMPDEST PUSH2 0x28B8 JUMPI PUSH1 0x0 PUSH20 0xFFFFFFFFFFFFFFFFFFFFFFFFFFFFFFFFFFFFFFFF AND DUP4 PUSH20 0xFFFFFFFFFFFFFFFFFFFFFFFFFFFFFFFFFFFFFFFF AND SUB PUSH2 0x2879 JUMPI DUP1 PUSH1 0x40 MLOAD PUSH32 0x7E27328900000000000000000000000000000000000000000000000000000000 DUP2 MSTORE PUSH1 0x4 ADD PUSH2 0x2870 SWAP2 SWAP1 PUSH2 0x2CB2 JUMP JUMPDEST PUSH1 0x40 MLOAD DUP1 SWAP2 SUB SWAP1 REVERT JUMPDEST DUP2 DUP2 PUSH1 0x40 MLOAD PUSH32 0x177E802F00000000000000000000000000000000000000000000000000000000 DUP2 MSTORE PUSH1 0x4 ADD PUSH2 0x28AF SWAP3 SWAP2 SWAP1 PUSH2 0x355B JUMP JUMPDEST PUSH1 0x40 MLOAD DUP1 SWAP2 SUB SWAP1 REVERT JUMPDEST POP POP POP JUMP JUMPDEST PUSH1 0x0 DUP1 PUSH1 0x0 SWAP1 POP PUSH27 0x184F03E93FF9F4DAA797ED6E38ED64BF6A1F010000000000000000 DUP4 LT PUSH2 0x291B JUMPI PUSH27 0x184F03E93FF9F4DAA797ED6E38ED64BF6A1F010000000000000000 DUP4 DUP2 PUSH2 0x2911 JUMPI PUSH2 0x2910 PUSH2 0x3709 JUMP JUMPDEST JUMPDEST DIV SWAP3 POP PUSH1 0x40 DUP2 ADD SWAP1 POP JUMPDEST PUSH14 0x4EE2D6D415B85ACEF8100000000 DUP4 LT PUSH2 0x2958 JUMPI PUSH14 0x4EE2D6D415B85ACEF8100000000 DUP4 DUP2 PUSH2 0x294E JUMPI PUSH2 0x294D PUSH2 0x3709 JUMP JUMPDEST JUMPDEST DIV SWAP3 POP PUSH1 0x20 DUP2 ADD SWAP1 POP JUMPDEST PUSH7 0x2386F26FC10000 DUP4 LT PUSH2 0x2987 JUMPI PUSH7 0x2386F26FC10000 DUP4 DUP2 PUSH2 0x297D JUMPI PUSH2 0x297C PUSH2 0x3709 JUMP JUMPDEST JUMPDEST DIV SWAP3 POP PUSH1 0x10 DUP2 ADD SWAP1 POP JUMPDEST PUSH4 0x5F5E100 DUP4 LT PUSH2 0x29B0 JUMPI PUSH4 0x5F5E100 DUP4 DUP2 PUSH2 0x29A6 JUMPI PUSH2 0x29A5 PUSH2 0x3709 JUMP JUMPDEST JUMPDEST DIV SWAP3 POP PUSH1 0x8 DUP2 ADD SWAP1 POP JUMPDEST PUSH2 0x2710 DUP4 LT PUSH2 0x29D5 JUMPI PUSH2 0x2710 DUP4 DUP2 PUSH2 0x29CB JUMPI PUSH2 0x29CA PUSH2 0x3709 JUMP JUMPDEST JUMPDEST DIV SWAP3 POP PUSH1 0x4 DUP2 ADD SWAP1 POP JUMPDEST PUSH1 0x64 DUP4 LT PUSH2 0x29F8 JUMPI PUSH1 0x64 DUP4 DUP2 PUSH2 0x29EE JUMPI PUSH2 0x29ED PUSH2 0x3709 JUMP JUMPDEST JUMPDEST DIV SWAP3 POP PUSH1 0x2 DUP2 ADD SWAP1 POP JUMPDEST PUSH1 0xA DUP4 LT PUSH2 0x2A07 JUMPI PUSH1 0x1 DUP2 ADD SWAP1 POP JUMPDEST DUP1 SWAP2 POP POP SWAP2 SWAP1 POP JUMP JUMPDEST PUSH1 0x0 PUSH20 0xFFFFFFFFFFFFFFFFFFFFFFFFFFFFFFFFFFFFFFFF AND DUP3 PUSH20 0xFFFFFFFFFFFFFFFFFFFFFFFFFFFFFFFFFFFFFFFF AND SUB PUSH2 0x2A82 JUMPI PUSH1 0x0 PUSH1 0x40 MLOAD PUSH32 0x64A0AE9200000000000000000000000000000000000000000000000000000000 DUP2 MSTORE PUSH1 0x4 ADD PUSH2 0x2A79 SWAP2 SWAP1 PUSH2 0x2E19 JUMP JUMPDEST PUSH1 0x40 MLOAD DUP1 SWAP2 SUB SWAP1 REVERT JUMPDEST PUSH1 0x0 PUSH2 0x2A90 DUP4 DUP4 PUSH1 0x0 PUSH2 0x1D1E JUMP JUMPDEST SWAP1 POP PUSH1 0x0 PUSH20 0xFFFFFFFFFFFFFFFFFFFFFFFFFFFFFFFFFFFFFFFF AND DUP2 PUSH20 0xFFFFFFFFFFFFFFFFFFFFFFFFFFFFFFFFFFFFFFFF AND EQ PUSH2 0x2B04 JUMPI PUSH1 0x0 PUSH1 0x40 MLOAD PUSH32 0x73C6AC6E00000000000000000000000000000000000000000000000000000000 DUP2 MSTORE PUSH1 0x4 ADD PUSH2 0x2AFB SWAP2 SWAP1 PUSH2 0x2E19 JUMP JUMPDEST PUSH1 0x40 MLOAD DUP1 SWAP2 SUB SWAP1 REVERT JUMPDEST POP POP POP JUMP JUMPDEST PUSH1 0x0 DUP1 PUSH20 0xFFFFFFFFFFFFFFFFFFFFFFFFFFFFFFFFFFFFFFFF AND DUP4 PUSH20 0xFFFFFFFFFFFFFFFFFFFFFFFFFFFFFFFFFFFFFFFF AND EQ ISZERO DUP1 ISZERO PUSH2 0x2BC1 JUMPI POP DUP3 PUSH20 0xFFFFFFFFFFFFFFFFFFFFFFFFFFFFFFFFFFFFFFFF AND DUP5 PUSH20 0xFFFFFFFFFFFFFFFFFFFFFFFFFFFFFFFFFFFFFFFF AND EQ DUP1 PUSH2 0x2B82 JUMPI POP PUSH2 0x2B81 DUP5 DUP5 PUSH2 0x17A6 JUMP JUMPDEST JUMPDEST DUP1 PUSH2 0x2BC0 JUMPI POP DUP3 PUSH20 0xFFFFFFFFFFFFFFFFFFFFFFFFFFFFFFFFFFFFFFFF AND PUSH2 0x2BA8 DUP4 PUSH2 0x1CA9 JUMP JUMPDEST PUSH20 0xFFFFFFFFFFFFFFFFFFFFFFFFFFFFFFFFFFFFFFFF AND EQ JUMPDEST JUMPDEST SWAP1 POP SWAP4 SWAP3 POP POP POP JUMP JUMPDEST PUSH1 0x0 PUSH1 0x40 MLOAD SWAP1 POP SWAP1 JUMP JUMPDEST PUSH1 0x0 DUP1 REVERT JUMPDEST PUSH1 0x0 DUP1 REVERT JUMPDEST PUSH1 0x0 PUSH32 0xFFFFFFFF00000000000000000000000000000000000000000000000000000000 DUP3 AND SWAP1 POP SWAP2 SWAP1 POP JUMP JUMPDEST PUSH2 0x2C13 DUP2 PUSH2 0x2BDE JUMP JUMPDEST DUP2 EQ PUSH2 0x2C1E JUMPI PUSH1 0x0 DUP1 REVERT JUMPDEST POP JUMP JUMPDEST PUSH1 0x0 DUP2 CALLDATALOAD SWAP1 POP PUSH2 0x2C30 DUP2 PUSH2 0x2C0A JUMP JUMPDEST SWAP3 SWAP2 POP POP JUMP JUMPDEST PUSH1 0x0 PUSH1 0x20 DUP3 DUP5 SUB SLT ISZERO PUSH2 0x2C4C JUMPI PUSH2 0x2C4B PUSH2 0x2BD4 JUMP JUMPDEST JUMPDEST PUSH1 0x0 PUSH2 0x2C5A DUP5 DUP3 DUP6 ADD PUSH2 0x2C21 JUMP JUMPDEST SWAP2 POP POP SWAP3 SWAP2 POP POP JUMP JUMPDEST PUSH1 0x0 DUP2 ISZERO ISZERO SWAP1 POP SWAP2 SWAP1 POP JUMP JUMPDEST PUSH2 0x2C78 DUP2 PUSH2 0x2C63 JUMP JUMPDEST DUP3 MSTORE POP POP JUMP JUMPDEST PUSH1 0x0 PUSH1 0x20 DUP3 ADD SWAP1 POP PUSH2 0x2C93 PUSH1 0x0 DUP4 ADD DUP5 PUSH2 0x2C6F JUMP JUMPDEST SWAP3 SWAP2 POP POP JUMP JUMPDEST PUSH1 0x0 DUP2 SWAP1 POP SWAP2 SWAP1 POP JUMP JUMPDEST PUSH2 0x2CAC DUP2 PUSH2 0x2C99 JUMP JUMPDEST DUP3 MSTORE POP POP JUMP JUMPDEST PUSH1 0x0 PUSH1 0x20 DUP3 ADD SWAP1 POP PUSH2 0x2CC7 PUSH1 0x0 DUP4 ADD DUP5 PUSH2 0x2CA3 JUMP JUMPDEST SWAP3 SWAP2 POP POP JUMP JUMPDEST PUSH1 0x0 DUP2 MLOAD SWAP1 POP SWAP2 SWAP1 POP JUMP JUMPDEST PUSH1 0x0 DUP3 DUP3 MSTORE PUSH1 0x20 DUP3 ADD SWAP1 POP SWAP3 SWAP2 POP POP JUMP JUMPDEST PUSH1 0x0 JUMPDEST DUP4 DUP2 LT ISZERO PUSH2 0x2D07 JUMPI DUP1 DUP3 ADD MLOAD DUP2 DUP5 ADD MSTORE PUSH1 0x20 DUP2 ADD SWAP1 POP PUSH2 0x2CEC JUMP JUMPDEST PUSH1 0x0 DUP5 DUP5 ADD MSTORE POP POP POP POP JUMP JUMPDEST PUSH1 0x0 PUSH1 0x1F NOT PUSH1 0x1F DUP4 ADD AND SWAP1 POP SWAP2 SWAP1 POP JUMP JUMPDEST PUSH1 0x0 PUSH2 0x2D2F DUP3 PUSH2 0x2CCD JUMP JUMPDEST PUSH2 0x2D39 DUP2 DUP6 PUSH2 0x2CD8 JUMP JUMPDEST SWAP4 POP PUSH2 0x2D49 DUP2 DUP6 PUSH1 0x20 DUP7 ADD PUSH2 0x2CE9 JUMP JUMPDEST PUSH2 0x2D52 DUP2 PUSH2 0x2D13 JUMP JUMPDEST DUP5 ADD SWAP2 POP POP SWAP3 SWAP2 POP POP JUMP JUMPDEST PUSH1 0x0 PUSH1 0x20 DUP3 ADD SWAP1 POP DUP2 DUP2 SUB PUSH1 0x0 DUP4 ADD MSTORE PUSH2 0x2D77 DUP2 DUP5 PUSH2 0x2D24 JUMP JUMPDEST SWAP1 POP SWAP3 SWAP2 POP POP JUMP JUMPDEST PUSH2 0x2D88 DUP2 PUSH2 0x2C99 JUMP JUMPDEST DUP2 EQ PUSH2 0x2D93 JUMPI PUSH1 0x0 DUP1 REVERT JUMPDEST POP JUMP JUMPDEST PUSH1 0x0 DUP2 CALLDATALOAD SWAP1 POP PUSH2 0x2DA5 DUP2 PUSH2 0x2D7F JUMP JUMPDEST SWAP3 SWAP2 POP POP JUMP JUMPDEST PUSH1 0x0 PUSH1 0x20 DUP3 DUP5 SUB SLT ISZERO PUSH2 0x2DC1 JUMPI PUSH2 0x2DC0 PUSH2 0x2BD4 JUMP JUMPDEST JUMPDEST PUSH1 0x0 PUSH2 0x2DCF DUP5 DUP3 DUP6 ADD PUSH2 0x2D96 JUMP JUMPDEST SWAP2 POP POP SWAP3 SWAP2 POP POP JUMP JUMPDEST PUSH1 0x0 PUSH20 0xFFFFFFFFFFFFFFFFFFFFFFFFFFFFFFFFFFFFFFFF DUP3 AND SWAP1 POP SWAP2 SWAP1 POP JUMP JUMPDEST PUSH1 0x0 PUSH2 0x2E03 DUP3 PUSH2 0x2DD8 JUMP JUMPDEST SWAP1 POP SWAP2 SWAP1 POP JUMP JUMPDEST PUSH2 0x2E13 DUP2 PUSH2 0x2DF8 JUMP JUMPDEST DUP3 MSTORE POP POP JUMP JUMPDEST PUSH1 0x0 PUSH1 0x20 DUP3 ADD SWAP1 POP PUSH2 0x2E2E PUSH1 0x0 DUP4 ADD DUP5 PUSH2 0x2E0A JUMP JUMPDEST SWAP3 SWAP2 POP POP JUMP JUMPDEST PUSH2 0x2E3D DUP2 PUSH2 0x2DF8 JUMP JUMPDEST DUP2 EQ PUSH2 0x2E48 JUMPI PUSH1 0x0 DUP1 REVERT JUMPDEST POP JUMP JUMPDEST PUSH1 0x0 DUP2 CALLDATALOAD SWAP1 POP PUSH2 0x2E5A DUP2 PUSH2 0x2E34 JUMP JUMPDEST SWAP3 SWAP2 POP POP JUMP JUMPDEST PUSH1 0x0 DUP1 PUSH1 0x40 DUP4 DUP6 SUB SLT ISZERO PUSH2 0x2E77 JUMPI PUSH2 0x2E76 PUSH2 0x2BD4 JUMP JUMPDEST JUMPDEST PUSH1 0x0 PUSH2 0x2E85 DUP6 DUP3 DUP7 ADD PUSH2 0x2E4B JUMP JUMPDEST SWAP3 POP POP PUSH1 0x20 PUSH2 0x2E96 DUP6 DUP3 DUP7 ADD PUSH2 0x2D96 JUMP JUMPDEST SWAP2 POP POP SWAP3 POP SWAP3 SWAP1 POP JUMP JUMPDEST PUSH1 0x0 PUSH1 0x20 DUP3 DUP5 SUB SLT ISZERO PUSH2 0x2EB6 JUMPI PUSH2 0x2EB5 PUSH2 0x2BD4 JUMP JUMPDEST JUMPDEST PUSH1 0x0 PUSH2 0x2EC4 DUP5 DUP3 DUP6 ADD PUSH2 0x2E4B JUMP JUMPDEST SWAP2 POP POP SWAP3 SWAP2 POP POP JUMP JUMPDEST PUSH1 0x0 PUSH1 0xC0 DUP3 ADD SWAP1 POP PUSH2 0x2EE2 PUSH1 0x0 DUP4 ADD DUP10 PUSH2 0x2CA3 JUMP JUMPDEST PUSH2 0x2EEF PUSH1 0x20 DUP4 ADD DUP9 PUSH2 0x2CA3 JUMP JUMPDEST PUSH2 0x2EFC PUSH1 0x40 DUP4 ADD DUP8 PUSH2 0x2CA3 JUMP JUMPDEST PUSH2 0x2F09 PUSH1 0x60 DUP4 ADD DUP7 PUSH2 0x2CA3 JUMP JUMPDEST PUSH2 0x2F16 PUSH1 0x80 DUP4 ADD DUP6 PUSH2 0x2CA3 JUMP JUMPDEST PUSH2 0x2F23 PUSH1 0xA0 DUP4 ADD DUP5 PUSH2 0x2C6F JUMP JUMPDEST SWAP8 SWAP7 POP POP POP POP POP POP POP JUMP JUMPDEST PUSH1 0x0 DUP1 PUSH1 0x0 PUSH1 0x60 DUP5 DUP7 SUB SLT ISZERO PUSH2 0x2F47 JUMPI PUSH2 0x2F46 PUSH2 0x2BD4 JUMP JUMPDEST JUMPDEST PUSH1 0x0 PUSH2 0x2F55 DUP7 DUP3 DUP8 ADD PUSH2 0x2E4B JUMP JUMPDEST SWAP4 POP POP PUSH1 0x20 PUSH2 0x2F66 DUP7 DUP3 DUP8 ADD PUSH2 0x2E4B JUMP JUMPDEST SWAP3 POP POP PUSH1 0x40 PUSH2 0x2F77 DUP7 DUP3 DUP8 ADD PUSH2 0x2D96 JUMP JUMPDEST SWAP2 POP POP SWAP3 POP SWAP3 POP SWAP3 JUMP JUMPDEST PUSH1 0x0 DUP1 PUSH1 0x0 PUSH1 0x60 DUP5 DUP7 SUB SLT ISZERO PUSH2 0x2F9A JUMPI PUSH2 0x2F99 PUSH2 0x2BD4 JUMP JUMPDEST JUMPDEST PUSH1 0x0 PUSH2 0x2FA8 DUP7 DUP3 DUP8 ADD PUSH2 0x2D96 JUMP JUMPDEST SWAP4 POP POP PUSH1 0x20 PUSH2 0x2FB9 DUP7 DUP3 DUP8 ADD PUSH2 0x2D96 JUMP JUMPDEST SWAP3 POP POP PUSH1 0x40 PUSH2 0x2FCA DUP7 DUP3 DUP8 ADD PUSH2 0x2D96 JUMP JUMPDEST SWAP2 POP POP SWAP3 POP SWAP3 POP SWAP3 JUMP JUMPDEST PUSH1 0x0 DUP2 SWAP1 POP SWAP2 SWAP1 POP JUMP JUMPDEST PUSH1 0x0 PUSH2 0x2FF9 PUSH2 0x2FF4 PUSH2 0x2FEF DUP5 PUSH2 0x2DD8 JUMP JUMPDEST PUSH2 0x2FD4 JUMP JUMPDEST PUSH2 0x2DD8 JUMP JUMPDEST SWAP1 POP SWAP2 SWAP1 POP JUMP JUMPDEST PUSH1 0x0 PUSH2 0x300B DUP3 PUSH2 0x2FDE JUMP JUMPDEST SWAP1 POP SWAP2 SWAP1 POP JUMP JUMPDEST PUSH1 0x0 PUSH2 0x301D DUP3 PUSH2 0x3000 JUMP JUMPDEST SWAP1 POP SWAP2 SWAP1 POP JUMP JUMPDEST PUSH2 0x302D DUP2 PUSH2 0x3012 JUMP JUMPDEST DUP3 MSTORE POP POP JUMP JUMPDEST PUSH1 0x0 PUSH1 0x20 DUP3 ADD SWAP1 POP PUSH2 0x3048 PUSH1 0x0 DUP4 ADD DUP5 PUSH2 0x3024 JUMP JUMPDEST SWAP3 SWAP2 POP POP JUMP JUMPDEST PUSH1 0x0 PUSH1 0x60 DUP3 ADD SWAP1 POP PUSH2 0x3063 PUSH1 0x0 DUP4 ADD DUP7 PUSH2 0x2CA3 JUMP JUMPDEST PUSH2 0x3070 PUSH1 0x20 DUP4 ADD DUP6 PUSH2 0x2CA3 JUMP JUMPDEST PUSH2 0x307D PUSH1 0x40 DUP4 ADD DUP5 PUSH2 0x2CA3 JUMP JUMPDEST SWAP5 SWAP4 POP POP POP POP JUMP JUMPDEST PUSH2 0x308E DUP2 PUSH2 0x2C63 JUMP JUMPDEST DUP2 EQ PUSH2 0x3099 JUMPI PUSH1 0x0 DUP1 REVERT JUMPDEST POP JUMP JUMPDEST PUSH1 0x0 DUP2 CALLDATALOAD SWAP1 POP PUSH2 0x30AB DUP2 PUSH2 0x3085 JUMP JUMPDEST SWAP3 SWAP2 POP POP JUMP JUMPDEST PUSH1 0x0 DUP1 PUSH1 0x40 DUP4 DUP6 SUB SLT ISZERO PUSH2 0x30C8 JUMPI PUSH2 0x30C7 PUSH2 0x2BD4 JUMP JUMPDEST JUMPDEST PUSH1 0x0 PUSH2 0x30D6 DUP6 DUP3 DUP7 ADD PUSH2 0x2E4B JUMP JUMPDEST SWAP3 POP POP PUSH1 0x20 PUSH2 0x30E7 DUP6 DUP3 DUP7 ADD PUSH2 0x309C JUMP JUMPDEST SWAP2 POP POP SWAP3 POP SWAP3 SWAP1 POP JUMP JUMPDEST PUSH1 0x0 DUP1 REVERT JUMPDEST PUSH1 0x0 DUP1 REVERT JUMPDEST PUSH32 0x4E487B7100000000000000000000000000000000000000000000000000000000 PUSH1 0x0 MSTORE PUSH1 0x41 PUSH1 0x4 MSTORE PUSH1 0x24 PUSH1 0x0 REVERT JUMPDEST PUSH2 0x3133 DUP3 PUSH2 0x2D13 JUMP JUMPDEST DUP2 ADD DUP2 DUP2 LT PUSH8 0xFFFFFFFFFFFFFFFF DUP3 GT OR ISZERO PUSH2 0x3152 JUMPI PUSH2 0x3151 PUSH2 0x30FB JUMP JUMPDEST JUMPDEST DUP1 PUSH1 0x40 MSTORE POP POP POP JUMP JUMPDEST PUSH1 0x0 PUSH2 0x3165 PUSH2 0x2BCA JUMP JUMPDEST SWAP1 POP PUSH2 0x3171 DUP3 DUP3 PUSH2 0x312A JUMP JUMPDEST SWAP2 SWAP1 POP JUMP JUMPDEST PUSH1 0x0 PUSH8 0xFFFFFFFFFFFFFFFF DUP3 GT ISZERO PUSH2 0x3191 JUMPI PUSH2 0x3190 PUSH2 0x30FB JUMP JUMPDEST JUMPDEST PUSH2 0x319A DUP3 PUSH2 0x2D13 JUMP JUMPDEST SWAP1 POP PUSH1 0x20 DUP2 ADD SWAP1 POP SWAP2 SWAP1 POP JUMP JUMPDEST DUP3 DUP2 DUP4 CALLDATACOPY PUSH1 0x0 DUP4 DUP4 ADD MSTORE POP POP POP JUMP JUMPDEST PUSH1 0x0 PUSH2 0x31C9 PUSH2 0x31C4 DUP5 PUSH2 0x3176 JUMP JUMPDEST PUSH2 0x315B JUMP JUMPDEST SWAP1 POP DUP3 DUP2 MSTORE PUSH1 0x20 DUP2 ADD DUP5 DUP5 DUP5 ADD GT ISZERO PUSH2 0x31E5 JUMPI PUSH2 0x31E4 PUSH2 0x30F6 JUMP JUMPDEST JUMPDEST PUSH2 0x31F0 DUP5 DUP3 DUP6 PUSH2 0x31A7 JUMP JUMPDEST POP SWAP4 SWAP3 POP POP POP JUMP JUMPDEST PUSH1 0x0 DUP3 PUSH1 0x1F DUP4 ADD SLT PUSH2 0x320D JUMPI PUSH2 0x320C PUSH2 0x30F1 JUMP JUMPDEST JUMPDEST DUP2 CALLDATALOAD PUSH2 0x321D DUP5 DUP3 PUSH1 0x20 DUP7 ADD PUSH2 0x31B6 JUMP JUMPDEST SWAP2 POP POP SWAP3 SWAP2 POP POP JUMP JUMPDEST PUSH1 0x0 DUP1 PUSH1 0x0 DUP1 PUSH1 0x80 DUP6 DUP8 SUB SLT ISZERO PUSH2 0x3240 JUMPI PUSH2 0x323F PUSH2 0x2BD4 JUMP JUMPDEST JUMPDEST PUSH1 0x0 PUSH2 0x324E DUP8 DUP3 DUP9 ADD PUSH2 0x2E4B JUMP JUMPDEST SWAP5 POP POP PUSH1 0x20 PUSH2 0x325F DUP8 DUP3 DUP9 ADD PUSH2 0x2E4B JUMP JUMPDEST SWAP4 POP POP PUSH1 0x40 PUSH2 0x3270 DUP8 DUP3 DUP9 ADD PUSH2 0x2D96 JUMP JUMPDEST SWAP3 POP POP PUSH1 0x60 DUP6 ADD CALLDATALOAD PUSH8 0xFFFFFFFFFFFFFFFF DUP2 GT ISZERO PUSH2 0x3291 JUMPI PUSH2 0x3290 PUSH2 0x2BD9 JUMP JUMPDEST JUMPDEST PUSH2 0x329D DUP8 DUP3 DUP9 ADD PUSH2 0x31F8 JUMP JUMPDEST SWAP2 POP POP SWAP3 SWAP6 SWAP2 SWAP5 POP SWAP3 POP JUMP JUMPDEST PUSH1 0x0 DUP1 PUSH1 0x40 DUP4 DUP6 SUB SLT ISZERO PUSH2 0x32C0 JUMPI PUSH2 0x32BF PUSH2 0x2BD4 JUMP JUMPDEST JUMPDEST PUSH1 0x0 PUSH2 0x32CE DUP6 DUP3 DUP7 ADD PUSH2 0x2E4B JUMP JUMPDEST SWAP3 POP POP PUSH1 0x20 PUSH2 0x32DF DUP6 DUP3 DUP7 ADD PUSH2 0x2E4B JUMP JUMPDEST SWAP2 POP POP SWAP3 POP SWAP3 SWAP1 POP JUMP JUMPDEST PUSH32 0x4E487B7100000000000000000000000000000000000000000000000000000000 PUSH1 0x0 MSTORE PUSH1 0x11 PUSH1 0x4 MSTORE PUSH1 0x24 PUSH1 0x0 REVERT JUMPDEST PUSH1 0x0 PUSH2 0x3323 DUP3 PUSH2 0x2C99 JUMP JUMPDEST SWAP2 POP PUSH2 0x332E DUP4 PUSH2 0x2C99 JUMP JUMPDEST SWAP3 POP DUP3 DUP3 ADD SWAP1 POP DUP1 DUP3 GT ISZERO PUSH2 0x3346 JUMPI PUSH2 0x3345 PUSH2 0x32E9 JUMP JUMPDEST JUMPDEST SWAP3 SWAP2 POP POP JUMP JUMPDEST PUSH1 0x0 PUSH2 0x3357 DUP3 PUSH2 0x2C99 JUMP JUMPDEST SWAP2 POP PUSH2 0x3362 DUP4 PUSH2 0x2C99 JUMP JUMPDEST SWAP3 POP DUP3 DUP3 SUB SWAP1 POP DUP2 DUP2 GT ISZERO PUSH2 0x337A JUMPI PUSH2 0x3379 PUSH2 0x32E9 JUMP JUMPDEST JUMPDEST SWAP3 SWAP2 POP POP JUMP JUMPDEST PUSH32 0x4E487B7100000000000000000000000000000000000000000000000000000000 PUSH1 0x0 MSTORE PUSH1 0x22 PUSH1 0x4 MSTORE PUSH1 0x24 PUSH1 0x0 REVERT JUMPDEST PUSH1 0x0 PUSH1 0x2 DUP3 DIV SWAP1 POP PUSH1 0x1 DUP3 AND DUP1 PUSH2 0x33C7 JUMPI PUSH1 0x7F DUP3 AND SWAP2 POP JUMPDEST PUSH1 0x20 DUP3 LT DUP2 SUB PUSH2 0x33DA JUMPI PUSH2 0x33D9 PUSH2 0x3380 JUMP JUMPDEST JUMPDEST POP SWAP2 SWAP1 POP JUMP JUMPDEST PUSH32 0x43616E6E6F74206D696E74000000000000000000000000000000000000000000 PUSH1 0x0 DUP3 ADD MSTORE POP JUMP JUMPDEST PUSH1 0x0 PUSH2 0x3416 PUSH1 0xB DUP4 PUSH2 0x2CD8 JUMP JUMPDEST SWAP2 POP PUSH2 0x3421 DUP3 PUSH2 0x33E0 JUMP JUMPDEST PUSH1 0x20 DUP3 ADD SWAP1 POP SWAP2 SWAP1 POP JUMP JUMPDEST PUSH1 0x0 PUSH1 0x20 DUP3 ADD SWAP1 POP DUP2 DUP2 SUB PUSH1 0x0 DUP4 ADD MSTORE PUSH2 0x3445 DUP2 PUSH2 0x3409 JUMP JUMPDEST SWAP1 POP SWAP2 SWAP1 POP JUMP JUMPDEST PUSH1 0x0 PUSH1 0x60 DUP3 ADD SWAP1 POP PUSH2 0x3461 PUSH1 0x0 DUP4 ADD DUP7 PUSH2 0x2E0A JUMP JUMPDEST PUSH2 0x346E PUSH1 0x20 DUP4 ADD DUP6 PUSH2 0x2CA3 JUMP JUMPDEST PUSH2 0x347B PUSH1 0x40 DUP4 ADD DUP5 PUSH2 0x2E0A JUMP JUMPDEST SWAP5 SWAP4 POP POP POP POP JUMP JUMPDEST PUSH32 0x496E73756666696369656E74207374616B650000000000000000000000000000 PUSH1 0x0 DUP3 ADD MSTORE POP JUMP JUMPDEST PUSH1 0x0 PUSH2 0x34B9 PUSH1 0x12 DUP4 PUSH2 0x2CD8 JUMP JUMPDEST SWAP2 POP PUSH2 0x34C4 DUP3 PUSH2 0x3483 JUMP JUMPDEST PUSH1 0x20 DUP3 ADD SWAP1 POP SWAP2 SWAP1 POP JUMP JUMPDEST PUSH1 0x0 PUSH1 0x20 DUP3 ADD SWAP1 POP DUP2 DUP2 SUB PUSH1 0x0 DUP4 ADD MSTORE PUSH2 0x34E8 DUP2 PUSH2 0x34AC JUMP JUMPDEST SWAP1 POP SWAP2 SWAP1 POP JUMP JUMPDEST PUSH32 0x4578636565647320746F74616C20726577617264730000000000000000000000 PUSH1 0x0 DUP3 ADD MSTORE POP JUMP JUMPDEST PUSH1 0x0 PUSH2 0x3525 PUSH1 0x15 DUP4 PUSH2 0x2CD8 JUMP JUMPDEST SWAP2 POP PUSH2 0x3530 DUP3 PUSH2 0x34EF JUMP JUMPDEST PUSH1 0x20 DUP3 ADD SWAP1 POP SWAP2 SWAP1 POP JUMP JUMPDEST PUSH1 0x0 PUSH1 0x20 DUP3 ADD SWAP1 POP DUP2 DUP2 SUB PUSH1 0x0 DUP4 ADD MSTORE PUSH2 0x3554 DUP2 PUSH2 0x3518 JUMP JUMPDEST SWAP1 POP SWAP2 SWAP1 POP JUMP JUMPDEST PUSH1 0x0 PUSH1 0x40 DUP3 ADD SWAP1 POP PUSH2 0x3570 PUSH1 0x0 DUP4 ADD DUP6 PUSH2 0x2E0A JUMP JUMPDEST PUSH2 0x357D PUSH1 0x20 DUP4 ADD DUP5 PUSH2 0x2CA3 JUMP JUMPDEST SWAP4 SWAP3 POP POP POP JUMP JUMPDEST PUSH1 0x0 DUP2 MLOAD SWAP1 POP PUSH2 0x3593 DUP2 PUSH2 0x3085 JUMP JUMPDEST SWAP3 SWAP2 POP POP JUMP JUMPDEST PUSH1 0x0 PUSH1 0x20 DUP3 DUP5 SUB SLT ISZERO PUSH2 0x35AF JUMPI PUSH2 0x35AE PUSH2 0x2BD4 JUMP JUMPDEST JUMPDEST PUSH1 0x0 PUSH2 0x35BD DUP5 DUP3 DUP6 ADD PUSH2 0x3584 JUMP JUMPDEST SWAP2 POP POP SWAP3 SWAP2 POP POP JUMP JUMPDEST PUSH32 0x5472616E73666572206661696C65640000000000000000000000000000000000 PUSH1 0x0 DUP3 ADD MSTORE POP JUMP JUMPDEST PUSH1 0x0 PUSH2 0x35FC PUSH1 0xF DUP4 PUSH2 0x2CD8 JUMP JUMPDEST SWAP2 POP PUSH2 0x3607 DUP3 PUSH2 0x35C6 JUMP JUMPDEST PUSH1 0x20 DUP3 ADD SWAP1 POP SWAP2 SWAP1 POP JUMP JUMPDEST PUSH1 0x0 PUSH1 0x20 DUP3 ADD SWAP1 POP DUP2 DUP2 SUB PUSH1 0x0 DUP4 ADD MSTORE PUSH2 0x362B DUP2 PUSH2 0x35EF JUMP JUMPDEST SWAP1 POP SWAP2 SWAP1 POP JUMP JUMPDEST PUSH32 0x526577617264207472616E73666572206661696C656400000000000000000000 PUSH1 0x0 DUP3 ADD MSTORE POP JUMP JUMPDEST PUSH1 0x0 PUSH2 0x3668 PUSH1 0x16 DUP4 PUSH2 0x2CD8 JUMP JUMPDEST SWAP2 POP PUSH2 0x3673 DUP3 PUSH2 0x3632 JUMP JUMPDEST PUSH1 0x20 DUP3 ADD SWAP1 POP SWAP2 SWAP1 POP JUMP JUMPDEST PUSH1 0x0 PUSH1 0x20 DUP3 ADD SWAP1 POP DUP2 DUP2 SUB PUSH1 0x0 DUP4 ADD MSTORE PUSH2 0x3697 DUP2 PUSH2 0x365B JUMP JUMPDEST SWAP1 POP SWAP2 SWAP1 POP JUMP JUMPDEST PUSH1 0x0 PUSH1 0x40 DUP3 ADD SWAP1 POP PUSH2 0x36B3 PUSH1 0x0 DUP4 ADD DUP6 PUSH2 0x2CA3 JUMP JUMPDEST PUSH2 0x36C0 PUSH1 0x20 DUP4 ADD DUP5 PUSH2 0x2CA3 JUMP JUMPDEST SWAP4 SWAP3 POP POP POP JUMP JUMPDEST PUSH1 0x0 PUSH2 0x36D2 DUP3 PUSH2 0x2C99 JUMP JUMPDEST SWAP2 POP PUSH2 0x36DD DUP4 PUSH2 0x2C99 JUMP JUMPDEST SWAP3 POP DUP3 DUP3 MUL PUSH2 0x36EB DUP2 PUSH2 0x2C99 JUMP JUMPDEST SWAP2 POP DUP3 DUP3 DIV DUP5 EQ DUP4 ISZERO OR PUSH2 0x3702 JUMPI PUSH2 0x3701 PUSH2 0x32E9 JUMP JUMPDEST JUMPDEST POP SWAP3 SWAP2 POP POP JUMP JUMPDEST PUSH32 0x4E487B7100000000000000000000000000000000000000000000000000000000 PUSH1 0x0 MSTORE PUSH1 0x12 PUSH1 0x4 MSTORE PUSH1 0x24 PUSH1 0x0 REVERT JUMPDEST PUSH1 0x0 PUSH2 0x3743 DUP3 PUSH2 0x2C99 JUMP JUMPDEST SWAP2 POP PUSH2 0x374E DUP4 PUSH2 0x2C99 JUMP JUMPDEST SWAP3 POP DUP3 PUSH2 0x375E JUMPI PUSH2 0x375D PUSH2 0x3709 JUMP JUMPDEST JUMPDEST DUP3 DUP3 DIV SWAP1 POP SWAP3 SWAP2 POP POP JUMP JUMPDEST PUSH32 0x4E6F7420696E207374616B696E6720706572696F640000000000000000000000 PUSH1 0x0 DUP3 ADD MSTORE POP JUMP JUMPDEST PUSH1 0x0 PUSH2 0x379F PUSH1 0x15 DUP4 PUSH2 0x2CD8 JUMP JUMPDEST SWAP2 POP PUSH2 0x37AA DUP3 PUSH2 0x3769 JUMP JUMPDEST PUSH1 0x20 DUP3 ADD SWAP1 POP SWAP2 SWAP1 POP JUMP JUMPDEST PUSH1 0x0 PUSH1 0x20 DUP3 ADD SWAP1 POP DUP2 DUP2 SUB PUSH1 0x0 DUP4 ADD MSTORE PUSH2 0x37CE DUP2 PUSH2 0x3792 JUMP JUMPDEST SWAP1 POP SWAP2 SWAP1 POP JUMP JUMPDEST PUSH32 0x4D757374207374616B65203E3D20353000000000000000000000000000000000 PUSH1 0x0 DUP3 ADD MSTORE POP JUMP JUMPDEST PUSH1 0x0 PUSH2 0x380B PUSH1 0x10 DUP4 PUSH2 0x2CD8 JUMP JUMPDEST SWAP2 POP PUSH2 0x3816 DUP3 PUSH2 0x37D5 JUMP JUMPDEST PUSH1 0x20 DUP3 ADD SWAP1 POP SWAP2 SWAP1 POP JUMP JUMPDEST PUSH1 0x0 PUSH1 0x20 DUP3 ADD SWAP1 POP DUP2 DUP2 SUB PUSH1 0x0 DUP4 ADD MSTORE PUSH2 0x383A DUP2 PUSH2 0x37FE JUMP JUMPDEST SWAP1 POP SWAP2 SWAP1 POP JUMP JUMPDEST PUSH1 0x0 PUSH1 0x60 DUP3 ADD SWAP1 POP PUSH2 0x3856 PUSH1 0x0 DUP4 ADD DUP7 PUSH2 0x2E0A JUMP JUMPDEST PUSH2 0x3863 PUSH1 0x20 DUP4 ADD DUP6 PUSH2 0x2E0A JUMP JUMPDEST PUSH2 0x3870 PUSH1 0x40 DUP4 ADD DUP5 PUSH2 0x2CA3 JUMP JUMPDEST SWAP5 SWAP4 POP POP POP POP JUMP JUMPDEST PUSH1 0x0 DUP2 SWAP1 POP SWAP3 SWAP2 POP POP JUMP JUMPDEST PUSH1 0x0 PUSH2 0x388E DUP3 PUSH2 0x2CCD JUMP JUMPDEST PUSH2 0x3898 DUP2 DUP6 PUSH2 0x3878 JUMP JUMPDEST SWAP4 POP PUSH2 0x38A8 DUP2 DUP6 PUSH1 0x20 DUP7 ADD PUSH2 0x2CE9 JUMP JUMPDEST DUP1 DUP5 ADD SWAP2 POP POP SWAP3 SWAP2 POP POP JUMP JUMPDEST PUSH1 0x0 PUSH2 0x38C0 DUP3 DUP6 PUSH2 0x3883 JUMP JUMPDEST SWAP2 POP PUSH2 0x38CC DUP3 DUP5 PUSH2 0x3883 JUMP JUMPDEST SWAP2 POP DUP2 SWAP1 POP SWAP4 SWAP3 POP POP POP JUMP JUMPDEST PUSH32 0x5374616B696E672069732072756E6E696E670000000000000000000000000000 PUSH1 0x0 DUP3 ADD MSTORE POP JUMP JUMPDEST PUSH1 0x0 PUSH2 0x390E PUSH1 0x12 DUP4 PUSH2 0x2CD8 JUMP JUMPDEST SWAP2 POP PUSH2 0x3919 DUP3 PUSH2 0x38D8 JUMP JUMPDEST PUSH1 0x20 DUP3 ADD SWAP1 POP SWAP2 SWAP1 POP JUMP JUMPDEST PUSH1 0x0 PUSH1 0x20 DUP3 ADD SWAP1 POP DUP2 DUP2 SUB PUSH1 0x0 DUP4 ADD MSTORE PUSH2 0x393D DUP2 PUSH2 0x3901 JUMP JUMPDEST SWAP1 POP SWAP2 SWAP1 POP JUMP JUMPDEST PUSH32 0x496E73756666696369656E742065787472612072657761726473000000000000 PUSH1 0x0 DUP3 ADD MSTORE POP JUMP JUMPDEST PUSH1 0x0 PUSH2 0x397A PUSH1 0x1A DUP4 PUSH2 0x2CD8 JUMP JUMPDEST SWAP2 POP PUSH2 0x3985 DUP3 PUSH2 0x3944 JUMP JUMPDEST PUSH1 0x20 DUP3 ADD SWAP1 POP SWAP2 SWAP1 POP JUMP JUMPDEST PUSH1 0x0 PUSH1 0x20 DUP3 ADD SWAP1 POP DUP2 DUP2 SUB PUSH1 0x0 DUP4 ADD MSTORE PUSH2 0x39A9 DUP2 PUSH2 0x396D JUMP JUMPDEST SWAP1 POP SWAP2 SWAP1 POP JUMP JUMPDEST PUSH32 0x6973206E6F742072656164790000000000000000000000000000000000000000 PUSH1 0x0 DUP3 ADD MSTORE POP JUMP JUMPDEST PUSH1 0x0 PUSH2 0x39E6 PUSH1 0xC DUP4 PUSH2 0x2CD8 JUMP JUMPDEST SWAP2 POP PUSH2 0x39F1 DUP3 PUSH2 0x39B0 JUMP JUMPDEST PUSH1 0x20 DUP3 ADD SWAP1 POP SWAP2 SWAP1 POP JUMP JUMPDEST PUSH1 0x0 PUSH1 0x20 DUP3 ADD SWAP1 POP DUP2 DUP2 SUB PUSH1 0x0 DUP4 ADD MSTORE PUSH2 0x3A15 DUP2 PUSH2 0x39D9 JUMP JUMPDEST SWAP1 POP SWAP2 SWAP1 POP JUMP JUMPDEST PUSH32 0x45787472612052657761726473207472616E73666572206661696C6564000000 PUSH1 0x0 DUP3 ADD MSTORE POP JUMP JUMPDEST PUSH1 0x0 PUSH2 0x3A52 PUSH1 0x1D DUP4 PUSH2 0x2CD8 JUMP JUMPDEST SWAP2 POP PUSH2 0x3A5D DUP3 PUSH2 0x3A1C JUMP JUMPDEST PUSH1 0x20 DUP3 ADD SWAP1 POP SWAP2 SWAP1 POP JUMP JUMPDEST PUSH1 0x0 PUSH1 0x20 DUP3 ADD SWAP1 POP DUP2 DUP2 SUB PUSH1 0x0 DUP4 ADD MSTORE PUSH2 0x3A81 DUP2 PUSH2 0x3A45 JUMP JUMPDEST SWAP1 POP SWAP2 SWAP1 POP JUMP JUMPDEST PUSH1 0x0 DUP2 MLOAD SWAP1 POP SWAP2 SWAP1 POP JUMP JUMPDEST PUSH1 0x0 DUP3 DUP3 MSTORE PUSH1 0x20 DUP3 ADD SWAP1 POP SWAP3 SWAP2 POP POP JUMP JUMPDEST PUSH1 0x0 PUSH2 0x3AAF DUP3 PUSH2 0x3A88 JUMP JUMPDEST PUSH2 0x3AB9 DUP2 DUP6 PUSH2 0x3A93 JUMP JUMPDEST SWAP4 POP PUSH2 0x3AC9 DUP2 DUP6 PUSH1 0x20 DUP7 ADD PUSH2 0x2CE9 JUMP JUMPDEST PUSH2 0x3AD2 DUP2 PUSH2 0x2D13 JUMP JUMPDEST DUP5 ADD SWAP2 POP POP SWAP3 SWAP2 POP POP JUMP JUMPDEST PUSH1 0x0 PUSH1 0x80 DUP3 ADD SWAP1 POP PUSH2 0x3AF2 PUSH1 0x0 DUP4 ADD DUP8 PUSH2 0x2E0A JUMP JUMPDEST PUSH2 0x3AFF PUSH1 0x20 DUP4 ADD DUP7 PUSH2 0x2E0A JUMP JUMPDEST PUSH2 0x3B0C PUSH1 0x40 DUP4 ADD DUP6 PUSH2 0x2CA3 JUMP JUMPDEST DUP2 DUP2 SUB PUSH1 0x60 DUP4 ADD MSTORE PUSH2 0x3B1E DUP2 DUP5 PUSH2 0x3AA4 JUMP JUMPDEST SWAP1 POP SWAP6 SWAP5 POP POP POP POP POP JUMP JUMPDEST PUSH1 0x0 DUP2 MLOAD SWAP1 POP PUSH2 0x3B38 DUP2 PUSH2 0x2C0A JUMP JUMPDEST SWAP3 SWAP2 POP POP JUMP JUMPDEST PUSH1 0x0 PUSH1 0x20 DUP3 DUP5 SUB SLT ISZERO PUSH2 0x3B54 JUMPI PUSH2 0x3B53 PUSH2 0x2BD4 JUMP JUMPDEST JUMPDEST PUSH1 0x0 PUSH2 0x3B62 DUP5 DUP3 DUP6 ADD PUSH2 0x3B29 JUMP JUMPDEST SWAP2 POP POP SWAP3 SWAP2 POP POP JUMP INVALID LOG2 PUSH5 0x6970667358 0x22 SLT KECCAK256 0xB5 0xBA JUMPI 0xBE 0x4D 0xE7 0xB9 PUSH30 0xFD16A42D80BCAA0114225203354C6B91D6E90C3B0BCD09D664736F6C6343 STOP ADDMOD SHL STOP CALLER "},"methodIdentifiers":{"IST2User(uint256)":"5c9c80c7","approve(address,uint256)":"095ea7b3","balanceOf(address)":"70a08231","canMint()":"beb9716d","extraRewards()":"e21c81d3","extraRewardsWithdrawCountdownTime()":"03bf7ab3","getApproved(uint256)":"081812fc","getExtraRewards()":"f28cb982","getStakeInfo()":"74a4030f","isApprovedForAll(address,address)":"e985e9c5","mintDurationAfterEnded()":"f0020c9e","mintToken()":"2004ffd9","name()":"06fdde03","owner()":"8da5cb5b","ownerOf(uint256)":"6352211e","renounceOwnership()":"715018a6","rewardToken()":"f7c618c1","safeTransferFrom(address,address,uint256)":"42842e0e","safeTransferFrom(address,address,uint256,bytes)":"b88d4fde","setApprovalForAll(address,bool)":"a22cb465","stake(uint256)":"a694fc3a","stakes(address)":"16934fc4","stakingDuration()":"8005a7de","stakingStartTime()":"6abfd183","stakingToken()":"72f702f3","start(uint256,uint256,uint256)":"641ccd83","supportsInterface(bytes4)":"01ffc9a7","symbol()":"95d89b41","tokenURI(uint256)":"c87b56dd","totalMintedCount()":"26ba27e3","totalRewardDistributed()":"30188ee8","totalRewards()":"0e15561a","totalStaked()":"817b1cd2","transferFrom(address,address,uint256)":"23b872dd","transferOwnership(address)":"f2fde38b","user2IST(address)":"4552a114","withdraw(uint256)":"2e1a7d4d","withdrawExtraRewards()":"fb7be572"}}}}}